:100000000C9437040C947E040C947E040C947E04AF
:100010000C947E040C947E040C947E040C947E0458
:100020000C947E040C947E040C94CA200C948620BC
:100030000C9450270C947E040C947E040C947E0443
:100040000C947E040C947E040C947E040C947E0428
:100050000C947E040C942C270C947E040C947E0447
:100060000C947E040C947E040C947E040C947E0408
:100070000C947E040C947E040C947E040C947E04F8
:100080000C947E040C947E040C947E040C947E04E8
:100090000C947E040C947E040C947E040C947E04D8
:1000A0000C947E040C947E040C947E0405010902D9
:1000B000A10185020901A1000509190129081500FE
:1000C0002501950875018102050109300931158165
:1000D000257F95027508810609381581257F9501D0
:1000E00075088106050C0A38021581257F95017572
:1000F000088106C0C005010980A101850319012AF4
:10010000B700150126B700950175108100C0050CD8
:100110000901A101850419012AA002150126A002E6
:10012000950175108100C005010906A1018505052D
:100130000719E029E71500250195087501810205D9
:1001400007190029EF1500250195F07501810205B9
:10015000081901290595057501910295017503910D
:1001600001C00660FF0961A1010962150026FF00B8
:100170009520750881020963150026FF00952075FA
:10018000089102C005010906A101050719E029E748
:1001900015002501950875018102950175088101F9
:1001A0000507190029FF150026FF0095067508812F
:1001B000000508190129059505750191029501753C
:1001C000039101C0000101010101010101010202CD
:1001D00002020202020202030303030303030304F5
:1001E00004040404040405050505050606060606C0
:1001F000070707070708080808090909090A0A0A7A
:100200000B0B0B0C0C0C0D0D0D0E0E0E0F0F0F101B
:1002100010111111121213131414151516161717A5
:10022000181819191A1A1B1B1C1D1D1E1E1F202011
:10023000212222232424252626272829292A2B2C5B
:100240002D2D2E2F30313232333435363738393A7E
:100250003B3C3D3E3F404142434445464748494A76
:100260004C4D4E4F50515354555658595A5B5D5E44
:100270005F616264656668696B6C6D6F70727375DF
:1002800077787A7B7D7E8082838587888A8C8E8F43
:1002900091939596989A9C9EA0A2A3A5A7A9ABAD71
:1002A000AFB1B3B5B7BABCBEC0C2C4C6C9CBCDCF5F
:1002B000D1D4D6D8DBDDDFE2E4E7E9EBEEF0F3F50D
:1002C000F8FAFDFFFFAA7F55402223252628292A78
:1002D0002C2D2F3032333536383A3B3D3E404243A9
:1002E0004547494A4C4E5051535557595A5C5E60E8
:1002F00062646668696B6D6F71737577797B7D7FFA
:1003000081838587898A8C8E90929496989A9C9EF8
:100310009FA1A3A5A7A8AAACAEAFB1B3B4B6B8B914
:10032000BBBCBEBFC1C2C3C5C6C7C9CACBCCCDCE7C
:10033000D0D1D2D2D3D4D5D6D7D7D8D9D9DADADB5F
:10034000DBDBDCDCDCDCDCDDDDDDDDDCDCDCDCDCEB
:10035000DBDBDBDADAD9D9D8D7D7D6D5D4D3D2D22A
:10036000D1D0CECDCCCBCAC9C7C6C5C3C2C1BFBE12
:10037000BCBBB9B8B6B4B3B1AFAEACAAA8A7A5A37D
:10038000A19F9E9C9A98969492908E8C8A8987853C
:1003900083817F7D7B79777573716F6D6B6968661B
:1003A0006462605E5C5A5957555351504E4C4A49ED
:1003B00047454342403E3D3B3A3836353332302F95
:1003C0002D2C2A29282625232229003A003B003CEF
:1003D000003D003E003F0040004100420043004419
:1003E00000450046004700480035001E001F002061
:1003F0000021002200230024002500260027002DD4
:10040000002E002A002A0049004A004B002B00144D
:10041000001A000800150017001C0018000C00123C
:100420000013002F00300031004C004D004E003909
:100430000004001600070009000A000B000D000E62
:10044000000F003300340032002800E10064001D7A
:10045000001B0006001900050011001000360037CF
:10046000003800E500E5005200E000E300E2002C67
:10047000002C002C00E600E7006500E4005000516D
:10048000004F00000000000000000000000000001D
:100490000001000100010001000100010001000154
:1004A0000001000100010001000100010001000144
:1004B0000001000100010001000100010001000134
:1004C0000001000100010001000100010001000124
:1004D0000001000100010001000100010001000114
:1004E0000001000100010001000100010001000104
:1004F00000010001000100010001000100010001F4
:1005000000010001000100010001000100010001E3
:1005100000010001000100010001000100010001D3
:1005200000010001000100010001000100010001C3
:1005300000010001000100010001000100010001B3
:1005400000010001000100010001000000000000A6
:100550000000000000000000000100010001000197
:100560000001000100010001000100010001000183
:100570000001000100010001000100010001000173
:100580000001000100010001000100010001000163
:100590000001000100010001000100010001000153
:1005A0000001000100010001000100010001000143
:1005B0000001000100010001000100010001000133
:1005C0000001000100010001000100010001000123
:1005D0000001000100010001000100010001000113
:1005E0000001000100010001000100010001000103
:1005F00000010001000100010001000100010001F3
:1006000000010001000100010001000100010001E2
:1006100000010000000000000000000000000000D9
:1006200000010001000100010001000100010001C2
:1006300000010001000100010001000100010001B2
:1006400000010001000100010001000100010001A2
:100650000001000100010001000100010001000192
:100660000001000100010001000100010001000182
:100670000001000100010001000100010001000172
:100680000001000100010001000100010001000162
:100690000001000100010001000100010001000152
:1006A0000001000100010001000100010001000142
:1006B0000001000100010001000100010001000132
:1006C0000001000100010001000100010001000122
:1006D0000001000100010001000100000000000015
:1006E000000000000000000000000000000000000A
:1006F00000000000000000000000000000000000FA
:10070000000000000000000000000000007E0F005C
:10071000D4FFFFFFC70000007800000000000000C9
:10072000002A2B280000000000000000000000004C
:100730000000000029000000002C1E34202122248B
:10074000342627252E362D3738271E1F2021222319
:100750002425263333362E37381F040506070809AB
:100760000A0B0C0D0E0F1011121314151617181971
:100770001A1B1C1D2F3130232D35040506070809CF
:100780000A0B0C0D0E0F1011121314151617181951
:100790001A1B1C1D2F3130354C1E0F0500047F3FE6
:1007A0001F643214643214783C1E1E140A050902B8
:1007B0005B00030100A0FA0904000001030101002D
:1007C0000921110100012240000705810308000AE8
:1007D00009040100020300000009211101000122A7
:1007E0002200070582032000010705030320000102
:1007F0000904020001030000000921110100012287
:10080000B6000705840320000A1201100100000051
:1008100008424388870100010200012C034300685D
:1008200000650072007200790042002E00530074CF
:10083000007500640069006F00200043004200382A
:100840000037007600320000001E03430068006598
:100850000072007200790042002E0053007400758F
:1008600000640069006F0000000403090400112403
:100870001FBECFEFDAE0DEBFCDBF04B603FE27C058
:100880008091A3039091A403A091A503B091A60326
:100890008730904BA740B04BD1F41092A303109235
:1008A000A4031092A5031092A60314BE84B7877FF9
:1008B00084BF0FB6F894A8958091600088618093FA
:1008C0006000109260000FBEE0E0F8E3099523E0BD
:1008D000ACE9B1E001C01D92A33AB207E1F711E023
:1008E000A0E0B1E0ECE6F2E502C005900D92AC3973
:1008F000B107D9F70E94A1210C94E9280C940000BB
:10090000E8EDF0E080818E7F80831092E20010920B
:10091000DA001092E100A0EEB0E08C9181608C933F
:1009200080818F77808319BCA7EDB0E08C918E7F9A
:100930008C9380818F7E808310926D030895209127
:10094000E4003091E50095E6A9012091EC00822FAA
:10095000817020FF06C08091E80080FF06C080E023
:1009600008952091E80022FD1AC080919203882307
:1009700089F0853089F08091EB0085FD0FC02091D2
:10098000E4003091E50042175307F9F29150E1F687
:1009900084E0089582E0089583E0089581E0089559
:1009A000EF92FF920F931F93CF937C018B010E94D4
:1009B0009F04C82F811117C08091E80085FD0BC0EE
:1009C0008091E8008E778093E8000E949F0488233E
:1009D00099F3C82F08C0F70181917F018093F1003E
:1009E0000150110949F78C2FCF911F910F91FF9062
:1009F000EF9008958091940387FF13C08091E800E1
:100A000082FF06C08091E8008B778093E80004C0E5
:100A1000809192038111F2CF0895809192038823EF
:100A2000D9F38091E80080FFF8CF8091E8008E77BD
:100A3000ECCF982F9093E900242F762F50E0891760
:100A400031F07091EC002091ED005091F00021FD0B
:100A500007C09F5F973071F78093E90081E00895A8
:100A60003091EB003E7F3093EB003091ED003D7F05
:100A70003093ED003091EB0031603093EB007093D8
:100A8000EC002093ED005093F0002091EE0027FD44
:100A9000E0CF80E00895CF92DF92EF92FF920F9324
:100AA0001F93CF93DF93C8EDD0E088818F7E88833A
:100AB000E7EDF0E080818160808384E082BF81E0A7
:100AC00080936D0388818E7F888302EE10E0F801A9
:100AD00010821092DA0081EEC82ED12CF60110821D
:100AE00088818F77888388818068888388818F7DDB
:100AF000888319BC10929203109293031092910371
:100B00001092900390EEE92EF12CF70180818B7FFB
:100B1000808388818160888342E060E080E00E9479
:100B20001905F60180818E7F8083F80180818160C4
:100B30008083808188608083F70180818E7F8083BD
:100B4000888180618883DF91CF911F910F91FF9001
:100B5000EF90DF90CF900895FC0180919A039091DF
:100B60009B0386179707A0F06115710529F49091F2
:100B7000E8009E779093E80090E06115710551F4CC
:100B8000911108C08091E80082FF34C080E0089590
:100B9000BC01F2CF809192038823C1F18530C1F16D
:100BA0008091E80083FD30C08091E80082FDEACFAB
:100BB0008091E80080FFE1CF8091F3002091F20066
:100BC000382F6115710519F02830310558F091E082
:100BD0002830310509F090E02091E8002E7720932D
:100BE000E800CBCF81918093F100615071092F5FB4
:100BF0003F4FE7CF80919203882341F0853041F049
:100C00008091E80083FFBECF81E0089582E00895DF
:100C100083E00895089580E0089580916F0308951A
:100C20009C014FB7F8948091690390916A03A09159
:100C30006B03B0916C034FBF821B930B08952FB7CA
:100C4000F8948091690390916A03A0916B03B0912D
:100C50006C032FBF089520911C012223C9F020911D
:100C6000200327FF15C0E62FE695E695E695EE31C1
:100C7000D8F4E80FF92FF11D677021E030E001C0D2
:100C8000220F6A95EAF7209582812823228308950E
:100C9000FC01329608962191621303C0DF0111977F
:100CA0001C92E817F907B9F7089520911C01222337
:100CB000C1F02091200327FF14C0E62FE695E695AA
:100CC000E695EE31F8F4E80FF92FF11D677021E099
:100CD00030E001C0220F6A95EAF78281822B82837D
:100CE0000895FC0132962FEF30E04191641751F0E6
:100CF0002F3F19F4411101C0232F3F5F3630A9F770
:100D00002F3F09F40895820F911D27FD9A95FC014C
:100D1000628308958091070381111092070308955B
:100D20008091060390910503892B90910403892BF0
:100D300080939E01909107039923A1F0892B8093C2
:100D40009E0180911C01882341F18091200387FF3F
:100D500024C08EE1E0EAF1E090E0815000F59111CD
:100D60000E948A06E0912303F09124033097E1F07A
:100D700080911C01882359F08091200387FF07C0D0
:100D800080919E0180939F0185E080939E01028067
:100D9000F381E02D8EE991E0099486E0DBCF21918B
:100DA0002223D9F29F5FD9CF08952AE0929F800D28
:100DB0001124982F977086958695869525E0829FB9
:100DC000F0011124EE53FD4F50E040E080E021910E
:100DD00030E0092E02C0369527950A94E2F721707B
:100DE0003327042E01C0220F0A94EAF7822B4F5FAB
:100DF0005F4F4530510559F708952AE0929F800DC5
:100E00001124982F977041E001C0440F9A95EAF79A
:100E100086958695869595E0899FF0011124EE537D
:100E2000FD4F90E080E070E05191DF0111979B0150
:100E3000082E02C0369527950A94E2F72170219575
:100E40002527242325272C9301968530910561F7CA
:100E500008958091C10290919002981301C0089565
:100E60008F5F8770FACF882341F0809590910603B9
:100E70008923809306030C9490060895882339F003
:100E800090910603982B909306030C949006089576
:100E900020918602309187022817390771F09093CC
:100EA000870280938602E0912303F0912403309718
:100EB00021F00084F185E02D0994089520918402A9
:100EC000309185022817390771F09093850280933D
:100ED0008402E0912303F0912403309721F00680EF
:100EE000F781E02D09940895E0912303F091240304
:100EF000309721F00190F081E02D099480E0089571
:100F0000FA01811101C0FB01099480915003982FCF
:100F10009E7F29F481708260809350030895863506
:100F2000E8F381708465F8CFAF92BF92DF92EF92C1
:100F3000FF920F931F93CF93DF93082F162FE90192
:100F4000E42FF0E0EC53FE4F611110C0E4915E2FEE
:100F50004E2F4983E8835A83DF91CF911F910F91E0
:100F6000FF90EF90DF90BF90AF900895E62EF12CA8
:100F70004491D42EE42FF0E026E0829FC00111249A
:100F80002FEF30E0B9010E949127802F90E0880F69
:100F9000991F55E5569FD001579FB00D11248A1B0C
:100FA0009B0B982F990F890F5901AE18BF08AE9E61
:100FB000D001AF9EB00DBE9EB00D11245B2F189FC7
:100FC00080011124012F11275901A01AB10AAE9EE8
:100FD0008001AF9E100DBE9E100D11245901A81A5C
:100FE000B108AE9CC001AF9C900DBE9C900D112429
:100FF000892F9927281B390B2E9FC0012F9F900DF9
:101000003E9F900D1124E92F62307105A1F050F43C
:101010006115710509F49DCF6130710581F0EB2FE9
:10102000512F97CF6430710569F080F066307105FB
:1010300009F48FCFF4CFE42F4B2F592F8ACFE42F11
:10104000412F87CFEB2F542F492F83CF4B2F5D2D6F
:10105000E12F7FCF0E941F069C0190913403809165
:101060003503982B21F03093310320933003909176
:10107000360380913703982B21F030932E03209371
:101080002D03E0912303F0912403309749F082E08F
:10109000809332030480F581E02D82E393E009948C
:1010A000089590E080E00E945E0790E080E00E945A
:1010B000480710920503109204030E94900686E0F0
:1010C000E2E3F3E0DF011D928A95E9F710922F0326
:1010D00010922C03109289020C942A0860939F03AB
:1010E0007093A0038093A1039093A2030C945108E2
:1010F0000F931F9360919F037091A0038091A103B0
:101100009091A2038B019C0106701127222733279F
:10111000063011052105310529F468601F910F91F2
:101120000C946E08677FFACF0F931F9341E050E055
:1011300060E070E004C0440F551F661F771F8A955A
:10114000D2F7CB01BA01609570958095909500918A
:101150009F031091A0032091A1033091A20360236B
:101160007123822393231F910F910C946E08909109
:1011700003038095892380930303282F277071F43C
:10118000282F082E000C330B9217130639F0859583
:10119000859585950E9494081092030308950F93F6
:1011A0001F9341E050E060E070E004C0440F551F21
:1011B000661F771F8A95D2F780919F039091A003B5
:1011C000A091A103B091A2038A019B01082B192BC6
:1011D0002A2B3B2BC901B8011F910F910C946E086B
:1011E000609308037093090380930A0390930B03A1
:1011F0000C94510840913403803F59F48091350399
:1012000087FF0DC01092350341110BC010922F03C0
:1012100008C0813F81F48091350318169CF3442364
:1012200081F08091360390913703892B09F05AC0E1
:1012300010922C030895823F49F447FFF0CF10929B
:101240003403809135038111ECCFE0CF833F19F453
:101250001416ACF3E4CF90913603893F29F41916A4
:10126000F4F610923603DBCF8A3F19F497FFD7CFFD
:10127000F8CF909137038B3F29F497FFD0CF10928E
:101280003703CDCF8C3F19F41916CCF3C8CF9CE0AF
:10129000980F953090F4845F990B21E030E0B9010C
:1012A00002C0660F771F8A95E2F7CB018095909177
:1012B0003303892380933303B2CF8D3F31F4809180
:1012C00089028E7F80938902AACF8E3F21F480917C
:1012D00089028D7FF7CF8F3F09F0A1CF80918902DE
:1012E0008B7FF0CF08958823B1F19CEF980F913A4E
:1012F00038F4682F8EE991E00E942B060C9490063A
:1013000090E2980F983088F4877021E030E0A901CE
:1013100002C0440F551F8A95E2F7CA01809590914B
:101320000603892380930603E9CF9BE5980F93304A
:1013300020F490E080E00C945E0798E5980F9731D8
:1013400020F490E080E00C944807803F20F00E9459
:10135000FA080C942A0808958091890280FD16C02D
:1013600081FD16C082FD16C080912C038823A1F058
:10137000883280F428E0829FC001112468E270E086
:101380000E94A527862F672B39F0089582E00895E3
:1013900084E0089588E0089581E0089580918902AD
:1013A00080FD14C081FD14C082FD16C080912F0302
:1013B000882381F0843180F422E3829FC0011124CC
:1013C00064E170E00E94A527862F08958CE00895BF
:1013D00089E1089585E0089582E30895803F31F41E
:1013E0000E94CE098195809335030895813F19F4B9
:1013F0000E94CE09F8CF823F31F40E94CE09819538
:10140000809334030895833F19F40E94CE09F8CFE6
:10141000893F29F40E94AC098093360308958A3FDE
:1014200021F40E94AC098195F7CF8B3F31F40E94E3
:10143000AC0981958093370308958C3F19F40E947D
:10144000AC09F8CF9CE0980F953070F4845F990B4D
:1014500021E030E001C0220F8A95EAF78091330342
:10146000822B8093330308958D3F31F4809189025C
:1014700081608093890208958E3F21F480918902D2
:101480008260F7CF8F3FB9F7809189028460F1CFF6
:10149000CF93C82F882309F46FC08CEF8C0F813A4B
:1014A000C0F580911C01882311F18091200387FFF2
:1014B0001EC0EC2FE695E695E695F0E0E256FE4F6D
:1014C000828190E04C2F477021E030E002C0220F73
:1014D000331F4A95E2F782239323892B91F06C2FD7
:1014E0008EE991E00E942B060E9490060AC0E0EA75
:1014F000F1E086EA91E02191C21789F38E179F07E8
:10150000D1F76C2F8EE991E00E945506CF910C9493
:10151000900680E28C0F883068F4C77021E030E0DC
:1015200001C0220FCA95EAF780910603822B8093AF
:101530000603ECCFEBE5EC0FE33040F4F0E0E85BC2
:10154000FE4F808190E0CF910C945E07E8E5EC0FB0
:10155000E73150F4F0E0EE0FFF1FE55BFE4F8081B6
:101560009181CF910C944807C03F30F08C2F0E949E
:10157000EE09CF910C942A08CF910895F894E82FA2
:10158000E295EF70F0E031A1282F2F7081E090E01C
:1015900001C0880F2A95EAF7982F9095932391A37D
:1015A00092A1892B82A3789408959091200392FFB1
:1015B00006C0282F28712830F9F4877F846093FFB4
:1015C00006C0282F28712831F1F4877E846120918C
:1015D000210320FF06C0382F38713830D9F4877FB7
:1015E000816021FF06C0282F28712831D1F4877E21
:1015F000816194FD877E0895282F24712430F9F6A7
:101600008B7F8860DCCF282F2471243101F78B7EFB
:101610008861DDCF382F3171313019F78E7F8860C6
:10162000E0CF282F2171213121F78E7E8861E1CF13
:1016300081FF05C0889A82FF04C08C9A089588981B
:10164000FACF8C980895CF9384E090E00E943E28D2
:10165000C82F81E290E00E943E28982F8C2FCF91D6
:1016600008950F931F93CF93DF93C42FD0E0CC0F37
:10167000DD1F24E1629FC00DD11D112438EC839F32
:10168000C00DD11D1124CE0186960E943E28082F40
:1016900010E0102F0027CE0187960E943E28980167
:1016A000282BC901DF91CF911F910F910895462FEB
:1016B000843038F47A3028F46A3018F4672F0C94A8
:1016C000310B90E080E00895CF93DF930E94570B99
:1016D000EC0182389105A9F1D8F58133910509F41F
:1016E00096C048F58932910509F48AC08A9709F4B1
:1016F00095C0C11521E5D20708F0BCC0C11530E581
:10170000D30708F014C1C83ED10508F09CC0C03E04
:10171000D10560F5C83AD10508F087C0C53AD105B2
:1017200008F0FDC0C130D10509F12097F9F0C430AF
:10173000D105E0F440C08533910509F45AC0C9973A
:10174000C1F680912003837089F0C0EED0E00EC016
:10175000833E910599F170F4803E910501F1823E3E
:10176000910539F68091200382FD21C0CE01DF91E1
:10177000CF910895863E910561F1873E910571F103
:10178000843E910509F0B5CF8091210381FFEECF12
:1017900080912003C7EED0E084FD0DC0E7CF80919B
:1017A000200380FD12C19091210390FFDFCFC3EE93
:1017B000D0E084FFDBCFD0E0C0E0D8CF8091200321
:1017C00082FD06C19091210390FDBFCF84FFCECF53
:1017D000F2CF8091200383FDDDCFC8CF809120031D
:1017E00083FDF9C09091210391FFF0CFC4EED0E0CA
:1017F000BDCF8091200385FFB9CFC9E2D0E0B6CF3D
:101800008091200385FFB2CFC5E3D0E0AFCF8091B8
:10181000200386FFABCFCAE2D0E0A8CF809120039F
:1018200086FFA4CFC1E3D0E0A1CFCF3BD10518F60E
:10183000C85AD0E0CC0FDD1FC55BDE4F0990D881C0
:10184000C02DD46493CFC11540E2D40758F4C1151C
:1018500081E0D80708F08ACFC03FD10508F4ABCFAC
:10186000D06584CFC11590E4D90708F4A4CFDF7008
:10187000D06A7CCFC11525E5D20700F5C11534E546
:10188000D30708F08AC0C11543E5D40708F071C03A
:10189000C11582E5D80708F467C0CE018370992787
:1018A00021E030E002C0220F331F8A95E2F7C6958F
:1018B000C69580E2C89FE001112452C0C11599E588
:1018C000D907A8F4C11528E5D20708F06BC0C115E7
:1018D00036E5D30708F06FCF8C2F0E94D50AC82FAA
:1018E000D0E0DC2FCC27CC27DF71D0623FCFC115F1
:1018F0004AE5D40708F45BC0CE01905681159042AA
:1019000008F059CF8D2F8F710E94D50A90E0982F43
:10191000882788279F719C012C2BE901E6CFC55AA7
:10192000D0E0C85BDE4FC881D0E0D0641FCFCE01CD
:10193000E4E096958795EA95E1F783702C2F26953C
:101940002695237040E2249F90011124382B8C2F80
:101950008370C1E0D0E002C0CC0FDD1F8A95E2F7B2
:10196000C22BD32BDC6802CFDC2FCC27C16FD06A0F
:10197000FDCECE018370992721E030E002C0220F16
:10198000331F8A95E2F7C695C69590E2C99FE0019C
:101990001124C22BD32BDA68E9CEDC2FCC27C46FFD
:1019A000D06AE4CEDC2FCC27C06FD06ADFCE8C2F7C
:1019B0008F700E94D50A34E0D695C7953A95E1F725
:1019C000CF709C2FEC01D069D1CEC9E3D0E0CECE50
:1019D000C2EED0E0CBCEC6EED0E0C8CEBF92CF9262
:1019E000DF92EF92FF920F931F93CF93DF938C01BF
:1019F000C0909F03D090A003E090A103F090A203B9
:101A00008091080390910903A0910A03B0910B0300
:101A1000C82AD92AEA2AFB2ACFE1D0E0BC2ED70176
:101A2000C6010C2E04C0B695A795979587950A9484
:101A3000D2F780FD0EC0219788F7B12C8B2DDF9156
:101A4000CF911F910F91FF90EF90DF90CF90BF90BB
:101A50000895B8018C2F0E94640B019761F3EECFBB
:101A6000CF93DF93EC010E94EE0CBE01DF91CF918A
:101A70000C94640B0E94300D292F2F7092959F704B
:101A800092509E3078F4E92FF0E0E551F74D0C9438
:101A9000B927803F19F020F4883E20F481E00895B2
:101AA000843FE1F380E00895883EC0F3813FD1F7A1
:101AB000F5CF822F86958695869508956F927F92B1
:101AC0008F929F92AF92BF92CF92DF92EF92FF924E
:101AD0000F931F93CF93DF9389ECC82E83E0D82E0A
:101AE00092E0E92EFF24F394E701C85CD1093601A6
:101AF0001BC0F50185909490692DC8010E94522861
:101B0000682DC80101960E94522882E0A80EB11CDF
:101B10000E5F1F4FC017D10761F784E1680E711C7B
:101B20006496CE15DF0529F08E0104511109530189
:101B3000E0CF7E0188ECE80EF11C88ECC80ED11CC9
:101B400082E2E81684E0F80679F6DF91CF911F91E2
:101B50000F91FF90EF90DF90CF90BF90AF909F904C
:101B60008F907F906F900895CF93DF93C6E4D3E07A
:101B700060E0CE010E9452282196C11584E0D8076A
:101B8000B9F7DF91CF910895CF93DF9300D00F92F3
:101B9000CDB7DEB790919203943011F589837B83A2
:101BA0006A839093E9008FEF9091E800815095FD52
:101BB00006C095ED9A95F1F700008111F5CF80915F
:101BC000E80085FF0DC050E040E063E070E0CE012A
:101BD00001960E94D0048091E8008E778093E800FF
:101BE0000F900F900F90DF91CF910895BC0184E08A
:101BF0000C94C40DBC0183E00C94C40D9C0184E0E2
:101C00008093E9009FEF8091E800915085FD06C028
:101C100085ED8A95F1F700009111F5CF8091E800EC
:101C200085FF0CC050E040E066E070E0C9010E9412
:101C3000D0048091E8008E778093E8000895CF93D8
:101C4000DF93EC0180911C018823B1F18091200386
:101C500087FF32C060E284E08093E9008FEF9091CB
:101C6000E800815095FD06C095ED9A95F1F70000CA
:101C70008111F5CF8091E80085FF1BC080911C0188
:101C800070E050E040E0811104C050E040E068E0C6
:101C900070E0CE010E94D0048091E8008E7780939E
:101CA000E80080E2FE01A0E7B3E001900D928A9582
:101CB000E1F7DF91CF91089568E081E0CDCF81E039
:101CC0008093E00080E28093D8001092C9008FE1F9
:101CD0009EE40197F1F700C0000087E090EBDC0183
:101CE0008093A3039093A403A093A503B093A603AA
:101CF00088E19CE00FB6F894A895809360000FBE31
:101D000090936000FFCF1F93CF93DF93182FD0E005
:101D1000C0E0893311F4C0E5D0E0812F0E94480A69
:101D2000209731F4812FDF91CF911F910C9473098B
:101D30008FE99FE00197F1F700C000002197F0CFF5
:101D40000F931F93CF93DF93C62FD42F022FFC0145
:101D500082818823A1F060939E030E941F069093C6
:101D60009D0380939C03C77081E001C0880FCA95D2
:101D7000EAF7DF91CF911F910F910C943E0780916C
:101D80009E03681335C080919C0390919D030E942F
:101D90001006883C910560F510E21D0FCD17B9F0D3
:101DA00080E28C0F883040F4C77081E001C0880F5A
:101DB000CA95EAF70E943307183048F481E09D2F56
:101DC000977001C0880F9A95EAF70E943E07802F0E
:101DD0000E94830E183098F4D77081E001C0880FFC
:101DE000DA95EAF7DF91CF911F910F910C943307A9
:101DF000C77081E001C0880FCA95EAF7F3CFDF9181
:101E0000CF911F910F9108958091500380FD0AC0DA
:101E1000E4ECF1E0118210821282339652E0EC3051
:101E2000F507C1F76E9A3EB13F7B2EB120644FB7E4
:101E3000F89484EC91E0FC015191CF0168E02EB957
:101E4000000000C057FF3EB9550F000000C000C0A1
:101E500000C03EB900C06A9591F7F2E08C309F0750
:101E600051F74FBF8FE594E00197F1F700C00000F4
:101E70000895EF92FF921F93CF93DF93EC0184ECD0
:101E8000E82E81E0F82E10E08C81970140915303F9
:101E900060915203810F0E949407165F83E0E80E61
:101EA000F11C103F89F70E94040F9A818C8190FFEA
:101EB00008C08F5F8C83DF91CF911F91FF90EF90CF
:101EC00008958150F7CFBF92CF92DF92EF92FF92A9
:101ED0000F931F93CF93DF93FC018281DD24DA946B
:101EE00080FD02C0DD24D39404EC11E0D0E0C0E01A
:101EF00028E1B22EF80111821082128294E0E92EBC
:101F0000F12CC12C8091C1018C0D89310CF43DC0A4
:101F10006B2D0E948327892F082E000C990B8C179C
:101F20009D0791F4809153038E9DA0018F9D500DCC
:101F30001124559547955595479598016091520301
:101F4000809151030E949407CD0CF1E0EF1AF10843
:101F5000C9F621960D5F1F4FC831D10559F60E9471
:101F6000040F8091C10191E0D91215C0811111C0F7
:101F700087E18093C101DF91CF911F910F91FF9075
:101F8000EF90DF90CF90BF90089587FFC5CF885E18
:101F9000C3CF8150EECF90E00196BE010E94A527ED
:101FA000E8CF0F931F93CF93DF93C4ECD1E0FE01F2
:101FB000118210821282339682E0EC30F807C1F76A
:101FC00010E000E08091C201082E000C990B081768
:101FD00019078CF180911001082E000C990B8017C5
:101FE00091074CF19E0140915303609152038091FF
:101FF00051030E9494070F5F1F4F2396083111056C
:1020000009F70E94040F80910F019091C201980F6F
:102010009093C20120911001280F209310011216F5
:1020200014F497311CF0819580930F01DF91CF91CB
:102030001F910F910895198218821A82DCCF8F9216
:102040009F92AF92BF92CF92DF92EF92FF920F9347
:102050001F93CF93DF93EC014C81042F10E0980184
:10206000D8010E94DA289B01AC010E94A5284B01EF
:102070005C01E0E2F0E0E01BF10BA5E5B0E0AC01B3
:102080009B010E94A5286B017C019F01DF010E943A
:10209000C6279B01AC010E94B0289B01AC01280D12
:1020A000391D4A1D5B1DC701B6010E94B828F22EDA
:1020B000822F90E039E23F15D8F143E0249F900150
:1020C000112435952795122F109594ECC92E91E087
:1020D000D92E00E085E5E82EEF188E2D01FD8F2D1D
:1020E0009601412F609152030E9494070F5F53E0C5
:1020F000C50ED11C083189F70E94040F9C8181E034
:10210000992319F0903219F48FEF80931101809187
:102110001101890F8C83DF91CF911F910F91FF9057
:10212000EF90DF90CF90BF90AF909F908F900895E9
:1021300025E530E0A901481B590BCA019A01220F7D
:10214000331F280F391F37FFBCCF2F5F3F4FB9CF49
:10215000EF92FF920F931F93CF93DF938C01C4EC08
:10216000D1E0F12CE12CF80194816091520380912F
:102170005103FCE0EF16F104FCF49923F9F09E0101
:10218000409153030E9494072FEFE21AF20A23961C
:1021900088E1E816F10439F70E94040FF801848100
:1021A00090E00196817099278483DF91CF911F91F0
:1021B0000F91FF90EF900895992309F39E0140E05D
:1021C000E1CF9091500390FF0CC0E4ECF1E08183EB
:1021D00060834283339692E0EC30F907C1F70C94A8
:1021E000040F08950F931F93CF93DF9300D00F92A6
:1021F000CDB7DEB78C018091C30181110AC09E0169
:102200002F5F3F4F4FEF6FEF0E9494078A818093BB
:10221000C301F8016481613069F08091C30140E03D
:10222000662361F040E0623011F44091C30180E028
:1022300060E004C06091C30140E080E00E94E110D2
:10224000F801848190E0019663E070E00E94A52788
:1022500084830F900F900F90DF91CF911F910F917A
:102260000895CF93DF9300D00F92CDB7DEB7909152
:10227000500390FF0AC09E012F5F3F4F0E949407BA
:102280004B8169818A810E94E1100F900F900F901D
:10229000DF91CF910895CF93DF93EC01EC81F0E0D3
:1022A000E753FD4F4491E0E5F3E0628181810E94B4
:1022B00031118C818F5F8C83DF91CF910895CF9303
:1022C000DF93EC01E0E5F3E0438162818C810E94C1
:1022D00031118C818F5F8C83DF91CF9108958F9224
:1022E0009F92AF92BF92CF92DF92EF92FF920F93A5
:1022F0001F93CF93DF9389E7E82E81E0F82E0CE05F
:1023000013E0E801A12CB12CCC24C394D12CD7012B
:102310008D917D01F894E82FE295EF70F0E021A116
:102320008F70A60102C0440F551F8A95E2F7CA01BB
:10233000922F982B91A392A18095892382A37894C0
:1023400000C0E3E8F1E030E020E0912C812C4191E5
:10235000A42FA295AF70B0E090968C9190E04F7052
:1023600002C0959587954A95E2F780FD4AC0C6015F
:10237000022E02C0880F991F0A94E2F7882A992A30
:102380002F5F3F4F2A30310511F7F70131978081D8
:102390000E94BE0A59E0A51619F080EA8A95F1F765
:1023A000888199818816990679F19982888281E0DD
:1023B000B82AA3942296AAE0AA12A9CFBB2031F191
:1023C00081E08093C0010E941F069093BF0180931B
:1023D000BE018091BE019091BF010E941006069738
:1023E000C8F0E5E5F3E080E293E0D8012D913D915E
:1023F0008D01219331938A179B07B9F71092C00181
:1024000009C090E080E0BACF80E0D2CF8091C001D7
:102410008111DFCF8B2DDF91CF911F910F91FF9015
:10242000EF90DF90CF90BF90AF909F908F900895E6
:102430004F925F926F927F928F929F92AF92BF92D4
:10244000CF92DF92EF92FF920F931F93CF93DF9380
:10245000FC016280448081E08483E9ECF2E07490C6
:10246000E8E4F3E0E491CCE0D2E034ECE32E31E0B8
:10247000F32E44E8C42E42E0D42E52E0A52EBB2415
:10248000B39488248A94912C55245A94E7190E2FDA
:1024900010E082E0861530F08091510388838091AE
:1024A00052038983411021C01B821A8297014A81FD
:1024B000698188810E949407259683E0E80EF11CCB
:1024C000CC16DD0631F7DF91CF911F910F91FF9070
:1024D000EF90DF90CF90BF90AF909F908F907F90C4
:1024E0006F905F904F900C94040F8B818823E9F0DC
:1024F00081508B83859DC00111246C8170E00E9406
:102500009127FB01FF27E753FD4F8491E82FE7193F
:10251000E59DC0011124B8010E94912780915303C9
:10252000689FB00111247A83C1CF0E942128209195
:102530005303269521582A9DA0012B9D500D11244F
:10254000452F5527841795070CF0B0CF82E08615EC
:1025500088F40E942128B4010E94A52788830E9444
:102560002128209152032695622F70E00E94A52712
:10257000280F29831A8280915303893C20F088EC2C
:102580008C838B8393CF8431D8F784E1F9CF6BEEC2
:102590007EEF90E080E00E94702860E082E090E0B2
:1025A0000E94522860E083E090E00E94522810923E
:1025B00008031092090310920A0310920B0360E0C3
:1025C00084E090E00E94522860E081E290E00E9466
:1025D000522860E085E090E00E94522860E086E0AA
:1025E00090E00E9452286FEF87E090E00E9452280E
:1025F00040E050E0BA0188E090E00E94642860E08A
:102600008DE090E00E94522840E050E0BA0188E15D
:1026100090E00E94642860E087E190E00E945228E8
:1026200040E050E0BA018CE190E00E94642860E054
:1026300080E290E00E94522840E050E0BA0188E138
:1026400090E00E94642840E050E0BA018FE090E002
:102650000E94642840E050E0BA0183E190E00C94CD
:102660006428CF92DF92EF92FF926B017C010E946F
:102670008507B701A60188E090E0FF90EF90DF901A
:10268000CF900C9464285F926F927F928F929F926A
:10269000AF92BF92CF92DF92EF92FF920F931F9370
:1026A000CF93DF9300D00F92CDB7DEB7182F762EE1
:1026B000042F622E9091500390FF29C0E92FE695D8
:1026C000AE2FB0E0A35EBE4F8C9180934E039E7FF1
:1026D000923081F59E012F5F3F4F812F0E9494071A
:1026E0004B8169818A810E94E1101093510370929D
:1026F000520300935303662051F060915003709190
:10270000510380915203909153030E9431130F9013
:102710000F900F90DF91CF911F910F91FF90EF904D
:10272000DF90CF90BF90AF909F908F907F906F90F1
:102730005F900895823019F400915303D6CF86300C
:1027400019F410915103D1CF8930D9F3893169F649
:10275000E9518E2F8170582EE695F0E0EC53FD4F35
:10276000A590B490BB2484ECE82E81E0F82ED12C07
:10277000C12C98E1892E912CC601B4010E949127A9
:10278000812F511013C0860F9701402F672D0E9493
:102790009407CA0CDB1C83E0E80EF11C8CE0E81601
:1027A00082E0F80649F70E94040F9FCF861BECCF0A
:1027B000E0E5F3E0438128E0421B08F440E021E03B
:1027C000628181810C944313E0E5F3E0438128E0CA
:1027D000420F08F44FEF21E0628181810C94431392
:1027E000E0E5F3E0628128E0621B08F460E021E0AC
:1027F000438181810C944313E0E5F3E0628128E09A
:10280000620F08F46FEF21E0438181810C94431340
:10281000E0E5F3E0818121E04381628188500C94FE
:102820004313E0E5F3E0818121E043816281885F29
:102830000C94431380915403882319F081508093A2
:102840005403609150037091510380915203909111
:1028500053030C94311380915403833018F48F5F29
:1028600080935403609150037091510380915203FF
:10287000909153030C943113E0E5F3E083E08083FF
:1028800011828FEF828383831482608171818281C0
:1028900093810C9431131092060380911C01E0EA9D
:1028A000F1E0882359F08091200387FF07C08EE173
:1028B000DF011D928A95E9F70C94510886E0F8CF64
:1028C0001F93CF93DF93CDB7DEB7AA970FB6F894D7
:1028D000DEBF0FBECDBF84E993E02091F100DC01A3
:1028E0002D93CD01B3E08C399B07B9F78091950307
:1028F000833009F471C0B8F4813009F448C08230E3
:1029000009F4B2C08091E80083FF3AC1809194033A
:10291000909195039A3008F033C1E92FF0E0E75029
:10292000F74D0C94B9278A3009F48DC08B3009F427
:1029300070C0893039F780919403813219F7809102
:10294000980390919903009711F00297D9F680911E
:10295000E800877F8093E8008091E80082FF37C01D
:102960009091F3008091F200029729F48091F10098
:102970008B7F813021F48091F10080936F038091EF
:10298000E8008B778093E8000E94FA04BBCF809127
:102990009403813A09F0B6CF8091E800877F809355
:1029A000E8008091980390919903892B61F460E28B
:1029B00080E793E070E00E94AC058091E8008B779F
:1029C0008093E8009FCF60E090E080E0F3CF8091BB
:1029D00092038111C1CF96CF80919403813A09F07F
:1029E00091CF8091980390919903892B09F08ACF18
:1029F0008091E800877F8093E8008091E80080FF65
:102A0000FCCF80911C018093F1008091E8008E77CB
:102A1000B9CF80919403813209F074CF80919803EB
:102A200090919903892B09F06DCF8091E800877F01
:102A30008093E8000E94FA048091960380931C0121
:102A40000E944B145FCF80919403813209F05ACFDA
:102A50008091E800877F8093E8000E94FA048091CB
:102A6000970380936E034ECF80919403813A09F0CF
:102A700049CF8091E800877F8093E8008091E8004B
:102A800080FFFCCF80916E03BECF803899F08238F2
:102A900009F076C0809198038F70873008F070C07D
:102AA0008093E9008091EB0085FB882780F91092E4
:102AB000E90006C08091900390919103911182608A
:102AC0009091E800977F9093E8008093F100109236
:102AD000F1008091E8008E77B5C1882309F4A2C186
:102AE000823009F04DC0809196038111A6C180917A
:102AF00098038F702FEF280F263008F041C0809385
:102B0000E9002091EB0020FF98C1933031F48091CF
:102B1000EB0080628093EB0090C19091EB0090619C
:102B20009093EB0021E030E001C0220F8A95EAF794
:102B30002093EA001092EA008091EB008860EACFCF
:102B400081111EC0109196031F778091E300807859
:102B5000812B8093E3008091E800877F8093E800D9
:102B60000E94FA048091E80080FFFCCF8091E3008E
:102B700080688093E30082E0111183E080939203E8
:102B80008091E80083FF0AC08091E800877F8093EE
:102B9000E8008091EB0080628093EB00AA960FB66C
:102BA000F894DEBF0FBECDBFDF91CF911F91089586
:102BB0008058823028F720919603309197032C3D5E
:102BC000E3E03E07A1F583E08A838AE289834FB779
:102BD000F894DE01139620E03EE051E2E32FF0E0AE
:102BE00050935700E49120FF03C0E295EF703F5FE0
:102BF000EF708E2F90E0EA30C0F0C7968D939D93D2
:102C00002F5F243159F74FBF8091E800877F809371
:102C1000E8006AE270E0CE0101960E94AC05809166
:102C2000E8008B778093E800ABCFC096E7CF809128
:102C3000980390919903432F55274330510509F488
:102C40004AC078F54130510509F47AC08BE590E02F
:102C5000EEEAF7E04230510509F092CF2091E8000A
:102C6000277F2093E80020919A0330919B038217DD
:102C7000930708F49C0140E02115310509F065C077
:102C8000411163C08091E80082FDC9CF8091920319
:102C9000882329F2853019F28091E80083FFF2CF72
:102CA000BECF4132510509F43CC04232510509F012
:102CB00067CF8330910508F063CFFC01EE0FFF1F53
:102CC000E057FE4F0190F081E02D83579E4FDC01CD
:102CD0008C9190E01AC0332721303105D1F02115B5
:102CE000310561F02230310509F04ACFEBE1F8E01F
:102CF000E4918E2F90E0EBE1F8E007C0E9E6F8E020
:102D0000E4918E2F90E0E9E6F8E0009709F438CFDF
:102D1000A5CFE9E4F8E0E4918E2F90E0E9E4F8E053
:102D2000F4CF8330910508F02BCF880F991FFC0159
:102D3000EA56FE4F0190F081E02D89E090E08ECFC1
:102D400082E190E0E9E0F8E089CF80919203882366
:102D500009F465CF853009F462CF8091E80083FDE6
:102D60005ECF8091E80082FD8DCF8091E80080FFEA
:102D700083CF9091F3008091F2002115310519F075
:102D80008830910550F041E0089709F040E08091CB
:102D9000E8008E778093E8006FCF44914093F10074
:102DA0003196215031090196E8CF803809F0E8CEFC
:102DB0008091E800877F8093E8008091930380935F
:102DC000F10087CE8111DCCE10919603123008F00D
:102DD000D7CE8091E800877F8093E800109393031B
:102DE0000E94FA04112311F084E005C08091E300F1
:102DF00087FDFACF81E08093920342E061EC81E0AD
:102E00000E94190542E261EC84E00E94190542E249
:102E100061EC82E00E94190542E260EC83E00E94CE
:102E20001905AECE80919603813009F0A9CE81E0DC
:102E3000933009F080E0809391031092E900809133
:102E4000E800877F8093E8000E94FA0499CE909171
:102E5000500390FF3DC09170811129C09260909302
:102E60005003662351F0609150037091510380919B
:102E70005203909153030E94311360915003669561
:102E800070E04BE050E084E091E00E943128892B13
:102E9000A9F010924F0381E08093290320E0409134
:102EA000530360915203809151030C9443138B326E
:102EB00010F09465D4CF880F982BD1CF81E0809308
:102EC0004F030E941F069093270380932603E3CFAE
:102ED0000895809150038695815009F48AE261E05B
:102EE0000C9427178091500386958F5F8B3208F0E2
:102EF00081E061E00C9427179091500390FF07C088
:102F00009695981720F0961710F40C94721761E0BC
:102F10000C9427173F924F925F926F927F928F92FD
:102F20009F92AF92BF92CF92DF92EF92FF920F9358
:102F30001F93CF93DF9300D000D00F92CDB7DEB7B1
:102F40008C01FC0183819481892B31F080819181F6
:102F500089238F3F09F03DC60F900F900F900F907F
:102F60000F90DF91CF911F910F91FF90EF90DF9025
:102F7000CF90BF90AF909F908F907F906F905F9019
:102F80004F903F9008950E94EE0CF82E682F898193
:102F90009A810E94FD0669817A818F2D0E94570BCC
:102FA0007C01F8019281992309F406C69701225108
:102FB0003F452031310508F0D2C58FEF93E00E94E4
:102FC0003E28FEEEEF0E56E4852E53E0952E882324
:102FD00081F180910303877009F4BECFF8018281EB
:102FE000882309F4B9CF82E00F900F900F900F90D3
:102FF0000F90DF91CF911F910F91FF90EF90DF9095
:10300000CF90BF90AF909F908F907F906F905F9088
:103010004F903F900C94B708811424E09206C9F2B7
:10302000C4010E943E28811101C0EA943FEF831A37
:10303000930AE110F1CF1C821B82442443944AE09E
:10304000342E74018FEFE81AF80AC4010E943E285A
:1030500089831A82882309F4BCCF9FEF980F93309D
:1030600000F58A83498292E0890E911CC7010E9473
:103070003E288B83882309F4ACCFFE0131967F0173
:10308000F70120812223E9F2213009F049C0918122
:103090008281913041F4F2E0EF0EF11C0E94830E28
:1030A00009C04701EACF923049F422E0E20EF11C58
:1030B0000E94480A3FEFE31AF30AE2CF933031F45B
:1030C00032E0E30EF11C0E947309F4CF943021F03A
:1030D0008FEFE81AF80AEECF92E0E90EF11C30E02B
:1030E00020E0B7016F5F7F4FF70141818053990B5B
:1030F0008A30910550F021503109E0F28FE99FE0CC
:103100000197F1F700C00000F6CF329EF001339E28
:10311000F00D11249C012E0F3F1F842F7B01E1CF66
:10312000E22FF0E0E75EF84F5490822F8695869567
:10313000869590E0FC01E75FF84F64902770712C52
:10314000022E02C0759467940A94E2F7E1E06E22C1
:103150007724FC01E750F94FA490B12C022E02C055
:10316000B594A7940A94E2F7F1E0AF22BB24FC01E6
:10317000E751F94FC490D12C02C0D594C7942A9539
:10318000E2F721E0C222DD246114710419F081EE1E
:103190000E94480AA114B10419F086EE0E94480A60
:1031A000852D0E94830EAB2819F086EE0E947309CC
:1031B000672819F081EE0E947309CD2809F47ACFAF
:1031C0008CE26CCF81E00E94CF080E94780801CF8A
:1031D00081E00E949408F9CF82E0F5CF85EFE816F0
:1031E0008CE5F80609F46AC008F464C027E245EEED
:1031F00066EEF6EFEF16FCE5FF0609F4D9C4992355
:1032000009F4F8C410929E0322E0E2162CE5F206BF
:1032100008F44DC136E1E3163CE5F30638F09701BA
:103220002A5F3C452930310508F041C10E94230B3B
:10323000909321038093200380E1E8168CE5F80643
:1032400009F404C108F083C0E8E0EE16ECE5FE06E0
:1032500009F4EEC008F04FC024E0E2162CE5F206B7
:1032600009F4DEC090F582E0E8168CE5F80609F472
:10327000D1C080912003826093E0E9169CE5F906B5
:1032800009F4CBC060912003F090210384E090E02A
:103290000E9452286F2D81E290E00E9452280E94E5
:1032A0004B1497CE27E245EE65EE82C426E241EE4E
:1032B00060EE7EC427E245EE64EE7AC426E241EE7B
:1032C00062EE76C428E241E0EFCF80912003806176
:1032D000E6E0EE16ECE5FE0609F49FC080912003BF
:1032E0008860F7E0EF16FCE5FF0608F496C08091D1
:1032F0002003806292C0809120038D7F2CE0E21633
:103300002CE5F20609F489C060F48AE0E8168CE541
:10331000F80609F497C008F48FC0809120038E7FCF
:103320007CC080912003877FEEE0EE16ECE5FE0680
:1033300009F473C0809120038B7FFFE0EF16FCE55A
:10334000FF0608F46AC0809120038F7E66C02BEFD1
:10335000E2162CE5F20609F467C068F583E1E81689
:103360008CE5F80609F47AC090F4E1E1EE16ECE59C
:10337000FE0609F46FC0F2E1EF16FCE5FF0609F066
:1033800081CF0E944B14809120038F7746C025E1A6
:10339000E2162CE5F20609F469C008F47DC08AEF54
:1033A000E8168CE5F80609F06DCF80912103816065
:1033B0008093210367CF9FEFE9169CE5F90609F496
:1033C00051C0A0F4809121038D7FFDEFEF16FCE545
:1033D000FF0671F3809121038E7F2EEFE2162CE51C
:1033E000F20630F3809121038360E2CF31E0E316EF
:1033F0003DE5F30609F459C008F444C060E092E0EA
:10340000E9169DE5F90609F03DCF8EE090E00E94B7
:10341000522838CF8091200381608093200332CFDF
:10342000809120038460F9CF809121038260C0CF16
:10343000809120038064F1CF0E944B14809120037F
:103440008068EBCF809120038C60E7CF80912003D0
:103450008F7DE3CF809120038F7BDFCF809120038E
:10346000837FDBCF809121038C7FA2CF80912003CB
:1034700082FB992790F921E0922790FB82F990FB3B
:1034800083F9CBCF80912103982F909591708E7FF7
:10349000892B90FB81F98CCF0E944B1490912003D3
:1034A000892F97FB87F98058B8CF61E0AECF809124
:1034B0000603E6E1EE16ECE5FE0609F0ABC38A7AF8
:1034C00091E009F490E09093880269E2811165E34C
:1034D0008EE991E00E9455060E9490067ACD809177
:1034E000500380FF1BC08E7F809350036091500378
:1034F0007091510380915203909153030E943113B4
:1035000010924F03FFEF20E732E0F15020403040AF
:10351000E1F700C000000E94040F5BCD8160809342
:10352000500361E086950E94271753CD49E657E185
:1035300062E777E10E9480074CCD42E757E169E6F8
:1035400077E1F8CF48E054E161E174E1F3CF41E184
:1035500054E168E074E1EECF40EF53E16CEF73E1CA
:10356000E9CF4CEF53E160EF73E1E4CF48ED53E175
:1035700064EE73E1DFCF44EE53E168ED73E1DACF3F
:103580004AE154E16BE274E1D5CF4BE254E16AE1E8
:1035900074E1D0CF61E081E0C6CF65E082E00E94B7
:1035A0007C1717CD68E086E0FACF6EE089E0F7CFB0
:1035B00064E18FE0F4CF67E185E1F1CF61E088E17C
:1035C000B2CF62E289E1EBCF61E083E2ACCFE114FC
:1035D0008CE5F80609F447C0EEEDEE16ECE5FE06C4
:1035E00009F44EC0F801E080F180992309F44BC042
:1035F000C7010E94EE0CD82E682FC7010E94FD065D
:10360000B7018D2D0E94640B7C01882EF801D280B9
:10361000A580A2943FE0A322809103038770A1F0CC
:10362000CD2CDD2091F08F2D807F803421F080E241
:103630008E0D883048F082E00E94B7088091030325
:103640008770CC24C3948111C12C3F2C32942FE07D
:103650003222FBE0F31508F452C0E32DF0E0ED5FF9
:10366000F64D0C94B9270E944B14FFEF24E33CE085
:10367000F15020403040E1F700C000000E945F0E92
:103680000E94C712A6CCC7010E94D506D82EB8CF7B
:103690002F2D2F70A22E8F2D807F19F0A29490EFE6
:1036A000A922DD20C9F0AA2069F080E28E0D8830C1
:1036B00010F081100BC080910603A82AA092060387
:1036C0000E9490068E2D0E94480A19C08091050321
:1036D000A82AA0920503F4CF8E2D0E947309AA2078
:1036E00071F0A09480E28E0D883010F081103FC000
:1036F00080910603A822A09206030E949006232D23
:103700002850330B2430310520F40E9474070E94A6
:10371000180BCC2009F420CC8091030380FD1CCC35
:10372000F80112828595859585950E94CF08C8017C
:103730000E948A17809103038595859585950F9042
:103740000F900F900F900F90DF91CF911F910F91DD
:10375000FF90EF90DF90CF90BF90AF909F908F90B1
:103760007F906F905F904F903F900C949408809161
:103770000503A822A0920503C0CF3F2D3F70932ED2
:103780008F2D807F803219F0929480EF98228820CC
:1037900071F081E0881661F1DD20B9F1AA2071F1A4
:1037A000F801858180FF8ECF8F70858327C0DD2053
:1037B00091F090910703892D892BA11003C00E94DD
:1037C0003E079DCFE1E0AE12FACF981709F497CFEC
:1037D0008093070394CFA11006C00E948A06892D0A
:1037E0000E9433078CCFF1E0AF1609F488CFF5CFF4
:1037F000DD2031F025E02A1508F481CF892DDFCFB7
:1038000034E03A1508F47BCFEACFAA2041F3F9E37C
:103810008F1209C02FEF37EE83E0215030408040F7
:10382000E1F700C000008E2D0E94730968CF8F2D34
:1038300086958695837061F0813009F060CFC7016D
:103840009370D11002C090E080E00E94480757CFEB
:10385000C7019370D11002C090E080E00E945E0723
:103860004ECF8E2DDD2029F00E94EE090E942A08FD
:1038700046CF0E94FA08FACF8F2D837009F066C0F8
:10388000D1103DCF8E2D829586958770880F880F39
:103890006E2D6F70462E512C712C612C082E04C099
:1038A000440C551C661C771C0A94D2F740E050E08B
:1038B000BA01E4FE0FC04FE050E060E070E004C0E9
:1038C000440F551F661F771F8A95D2F74095509574
:1038D000609570958F2D869586958370823019F14D
:1038E000D8F48090080390900903A0900A03B09048
:1038F0000B03813069F04429552966297729CB01CA
:10390000BA01682179218A219B210E94F008F7CE13
:10391000482859286A287B28CB01BA0164297529CF
:1039200086299729F2CF442955296629772940907D
:1039300008035090090360900A0370900B03CB01B9
:10394000BA016425752586259725DFCF8695DD206C
:1039500011F08F2D8170882309F4D1CE8E2D8295A0
:1039600086958770880F880F6E2D6F70462E512CAC
:10397000712C612C082E04C0440C551C661C771C4D
:103980000A94D2F740E050E0BA01E4FE0FC04FE0E5
:1039900050E060E070E004C0440F551F661F771FC1
:1039A0008A95D2F740955095609570958F2D8695A4
:1039B00086958370823019F1D8F480909F0390909F
:1039C000A003A090A103B090A203813069F0442924
:1039D000552966297729CB01BA01682179218A21E5
:1039E0009B210E946E088BCE482859286A287B2884
:1039F000CB01BA016429752986299729F2CF442978
:103A000055296629772940909F035090A003609024
:103A1000A1037090A203CB01BA0164257525862508
:103A20009725DFCF9F2D9F70F92EDD2029F0892F5C
:103A30000E94CF088E2DC3CE8E2D0E9433078F2D6E
:103A40000E9494085CCE8E2DE2EF8E1609F453C0CE
:103A5000E81578F0F0EF8F1629F121EF821609F4BE
:103A600042C0DD2009F46BC0A1102CCE8F2D8F71C8
:103A70003FC033EF831609F443C094EF8912F1CFAE
:103A8000DD2009F451C02F2D2F71F22E822F0E94BC
:103A9000CF0838E0F39EC0011124836080930303B4
:103AA0008F2D26C0DD20D1F0E4E0EA1508F427CE02
:103AB0002F2D2F7161E070E080E090E004C0660F70
:103AC000771F881F991F2A95D2F740909F03509027
:103AD000A0036090A1037090A2039FCFF5E0FA15B8
:103AE00008F40DCEE5CF8F2D8F71DD2009F4A8CF1E
:103AF0000E94CF0804CE8F2D8F71DD20C9F3A0CF97
:103B000060E070E0CB01DD2009F46BCF2F2D2F7129
:103B100061E070E080E090E004C0660F771F881FCE
:103B2000991F2A95D2F75DCF81E00E94B70881E006
:103B30008A1508F0E4CD82E00E94B708E0CDAA2003
:103B400059F0893309F06FCE9FEFE7EEF3E0915023
:103B5000E040F040E1F765CE8F2D8F7171CFF0E13D
:103B6000EF16FFE5FF0609F42DCB21E1E2162FE564
:103B7000F20609F431CB83EFE8168CE5F80609F478
:103B800095CB08F02BCBF8EDEF16FCE5FF0609F41A
:103B900089CB29EDE2162CE5F20609F493CB37ED3B
:103BA000E3163CE5F30609F02ACB26E241EE61EE8E
:103BB000C8010E94A00E0DCA30E1E3163FE5F306EE
:103BC00009F406CB81E1E8168FE5F806A1F682E05C
:103BD00000CB85E0DE01119601900D928A95E1F708
:103BE000F801228189819A812111CDC90E94D506CF
:103BF000F82ED1C9F6E1EF16FCE5FF0609F0F2CC8C
:103C00008091880269E2811165E38EE991E00E946A
:103C10002B0662CC8272F701E25CFC45E431F105CF
:103C200008F0D5CCE15FF64D0C94B9271F93CF93E4
:103C3000DF9380918F02807FA9F480918C0288238A
:103C400089F08091C102D091900260918A027091B6
:103C50008B02A0918D02B0918E02C62FC72316E071
:103C6000D81304C0DF91CF911F91089590E0109771
:103C700011F0CF3F19F401968770F2CF189F900191
:103C8000199F300D1124F901EF56FD4F4181471363
:103C9000F2CF40814613EFCF42814111ECCF4381F7
:103CA00054814A1B5B0B483C510528F780918F02D9
:103CB0008F70806180938F02F901EA56FD4F8081F9
:103CC0008F70806180838AE892E00E948A17DF917A
:103CD000CF911F910C942907AF92BF92CF92DF92A0
:103CE000EF92FF920F931F93CF93DF93CDB7DEB781
:103CF00061970FB6F894DEBF0FBECDBF8C0185E093
:103D0000F801DE011D9601900D928A95E1F7F80108
:103D100080819181E2802AE8A22E22E0B22E609179
:103D20008D0270918E026115710509F43EC13091CA
:103D30008A0240918B02232F24232F3F09F435C19F
:103D4000C380D480F0908C02F601E61BF70BFF20B5
:103D500009F4FBC020918F02522F507FE83CF105FF
:103D600008F0BBC0511178C0FE2C491321C0381394
:103D70001FC0E1101DC02F70206120938F02C5016C
:103D80000E948A1780918F02F80185838F2D61969A
:103D90000FB6F894DEBF0FBECDBFDF91CF911F915C
:103DA0000F91FF90EF90DF90CF90BF90AF9008956C
:103DB000CD2829F0282F29232F3F09F014C120E016
:103DC000F22FF170DF2E20FF3DC02091C102409103
:103DD000900256E0241315C08D879E878D859E85A1
:103DE0000E94300D292F22952F702230F8F02430B8
:103DF00020F59F70F9F0F8019581907FD9F4D12CCE
:103E00001FC030E0529FF001539FF00D1124EF5678
:103E1000FD4F6181961306C06081861303C06281E5
:103E2000E61210C02F5F3F4F2770D4CF9F7011F064
:103E3000882329F3805E883010F3C8010E948A1716
:103E4000FD2CA4CFEE2009F4A1CF80918F028160D8
:103E500080938F02F12C9ACF491312C0381310C0EF
:103E6000E1100EC0F8012583C8010E948A1786E080
:103E7000F801AAE8B2E001900D928A95E1F786CFA9
:103E80008D879E878D859E850E943A0D882309F136
:103E9000EE20F9F080918F02803270F020918A023A
:103EA00030918B0238872F831986DB86CA868C87F0
:103EB000CE0107960E948A1786E0F801AAE8B2E0D0
:103EC00001900D928A95E1F70E94161EFF24F3944B
:103ED0005DCFC8010E948A17F9CF51110AC08AE844
:103EE00092E00E948A1786E0F50111928A95E9F71F
:103EF000B1CF49130FC038130DC0E1100BC0F8014A
:103F00002583C8010E948A1786E0F50111928A95DF
:103F1000E9F73CCF8D879E878D859E850E943A0D5F
:103F20008823B9F2EE20A9F280918F02803220F22C
:103F300020918A0230918B023A8329831B82DD8291
:103F4000CC828E83CE010196B5CFE83CF105E0F638
:103F5000FE2CEE2009F4BDCF491316C0381314C04F
:103F600080918F0280FD83CF982F907F09F47FCFBF
:103F7000F8018583903F09F477CF982F907F905F69
:103F80008F70892B858370CF8D879E878D859E85C9
:103F90000E943A0D811190CF80918F0281608093B1
:103FA0008F02C8010E948A17F1CEEE2009F491CF4A
:103FB0008D879E878D859E850E943A0DF82E8823D9
:103FC00009F487CF86E0F801AAE8B2E001900D92EB
:103FD0008A95E1F780918A0290918B020E94300DC0
:103FE0000E94161ED3CE21E02E25EACE1F93CF933A
:103FF000DF93CDB7DEB767970FB6F894DEBF0FBE7D
:10400000CDBF342F4B8B252F5C8B6D8B7E8B8F8B95
:104010008E899F896111109205031A8A198A3D873A
:104020002E876F87998B888B86E0FE013D96DE0197
:10403000179601900D928A95E1F7CE0107960E949E
:104040006C1E882389F016E08091C1029091900245
:10405000891349C067960FB6F894DEBF0FBECDBF77
:10406000DF91CF911F91089586E0FE013796DE0122
:10407000119601900D928A95E1F78A859B85892B8F
:1040800011F38F81988589238F3FE9F22091900267
:1040900030E0C9010196877099274091C102481705
:1040A000190671F40E944B14109290021092C102F2
:1040B00086E0EAE8F2E0DF011D928A95E9F7C3CFD6
:1040C00096E0929FD001939FB00D1124AF56BD4F43
:1040D000FE01319601900D929A95E1F7809390023E
:1040E0000E942907B0CF819FC00111248F569D4F98
:1040F0000E946C1E882309F4ADCF8091C10290E02C
:104100000196877099278093C1029ECF1F920F92CC
:104110000FB60F9211242F933F934F935F936F939A
:104120007F938F939F93AF93BF93CF93DF93EF933F
:10413000FF93D091E900DF708091EC00C82FC1702F
:1041400080FDC0E81092E9008091F000877F8093A5
:10415000F00078940E9460141092E9008091F000C1
:1041600088608093F000CD2BCF70C093E900FF9161
:10417000EF91DF91CF91BF91AF919F918F917F91FF
:104180006F915F914F913F912F910F900FBE0F90C4
:104190001F9018951F920F920FB60F9211242F9314
:1041A0003F934F935F936F937F938F939F93AF93BF
:1041B000BF93EF93FF938091E10082FF09C080914C
:1041C000E20082FF05C08091E1008B7F8093E100D7
:1041D0008091DA0080FF24C08091D80080FF20C049
:1041E0008091DA008E7F8093DA008091D90080FF81
:1041F0009BC080E189BD82E189BD09B400FEFDCF8D
:1042000081E08093920380916D03811109C00E9427
:1042100080040E944B058091E20084608093E2005C
:104220008091E10080FF17C08091E20080FF13C001
:104230008091E2008E7F8093E2008091E2008061B5
:104240008093E2008091D80080628093D80019BCEE
:1042500085E0809392038091E10084FF29C08091E2
:10426000E20084FF25C080E189BD82E189BD89B576
:10427000982F917080FFFBCF8091D8008F7D809325
:10428000D8008091E1008F7E8093E1008091E20070
:104290008F7E8093E2008091E20081608093E20053
:1042A00080919303882309F445C084E080939203AE
:1042B0008091E10083FF27C08091E20083FF23C04B
:1042C0008091E100877F8093E10082E080939203F8
:1042D000109293038091E1008E7F8093E1008091A2
:1042E000E2008E7F8093E2008091E2008061809303
:1042F000E20042E060E080E00E9419058091F00059
:1043000088608093F000FF91EF91BF91AF919F91F2
:104310008F917F916F915F914F913F912F910F906E
:104320000FBE0F901F90189519BC10929203109217
:104330006D0376CF8091E30087FD93E09093920325
:10434000B7CFCDB7DEB7AA970FB6F894DEBF0FBED2
:10435000CDBF84B7877F84BF0FB6F894A8958091AE
:104360006000886180936000109260000FBE80E85A
:1043700090E00FB6F89480936100909361000FBEB7
:1043800085B7806885BF85B7806885BF8BE096E07C
:1043900090939D0180939C010E9480040E944B0594
:1043A0008091E20084608093E2007894809192038F
:1043B0008823A1F01091E9001F709091EC00892FE3
:1043C000817090FD80E8182B1092E9008091E80040
:1043D00083FD0E9460141F701093E90082E084BD89
:1043E00093E095BD9AEF97BD80936E0009E711E0C9
:1043F000F3E8EF2EF1E0FF2EF80181918F010E948A
:10440000BE0AE016F106C1F703E811E0EDE8EE2E72
:10441000E1E0FE2EF80181918F010E94BE0AE016B4
:10442000F106C1F7ECE0F3E080E293E0A5E5B3E04C
:10443000119211921D921D928E179F07C9F70E942B
:104440006F118FE39CE90197F1F700C000000E9413
:104450006F118091550380FF17C06FEF82E290E0EB
:104460000E9452286FEF83E290E00E9452286FEF83
:1044700084E290E00E9452286FEF7FEF90E080E0AE
:104480000E9470280E945F0E90E080E00E944C28FD
:104490008B3E9E4F11F00E94C712809A8898849A92
:1044A0008C9882E290E00E943E28813209F0A8C4F4
:1044B00083E290E00E943E28843009F0A1C484E2A7
:1044C00090E00E943E28833209F09AC490E080E098
:1044D0000E944C288B3E9E4F11F00E94C71282E032
:1044E00090E00E943E28809339030E94230B909312
:1044F00021038093200383E090E00E943E28682FF0
:1045000070E090E080E00E94F00880912203811129
:1045100036C090E080E00E944C288B3E9E4F21F0F8
:104520000E94C7120E943C1488E090E00E94462836
:1045300060935003709351038093520390935303FD
:104540006E7F71F40E943C1488E090E00E9446283F
:1045500060935003709351038093520390935303DD
:104560000E94850710924F038091500380FF04C082
:1045700060E086950E94271781E08093220382E104
:1045800091E0909324038093230358E1E52EF12CCE
:1045900060E4B62E79E6C72E73E0D72E80919203A1
:1045A00000E112E1853009F4BEC10E946F11882339
:1045B00059F08FB7F8944091690350916A03609164
:1045C0006B0370916C038FBFEAE3F3E0A5E5B3E002
:1045D00010E000E0702F8D919D912191319128176D
:1045E000390709F4B2C12827392760E08824839469
:1045F000912CA90148215921452B09F4A0C169A397
:104600007AA39C012821392191E0232B09F490E021
:104610009BA30E941F068160782F9DA38CA349A1B4
:104620005AA16BA18DA10E94F61F000F111FF80166
:10463000E65CFC4F80819181882699269182808258
:1046400080914F038823D1F180914E03E091500374
:10465000E695E81BE0932803823009F08DC1F0E075
:10466000E655F84FE4910E2F10E08BE4882E81E19F
:10467000982E80912903882361F0109229030E94CB
:104680001F06909327038093260310922B0310920A
:104690002A030E941F06E0912603F09127038E1B38
:1046A0009F0B8F3F9F4750F4E00FF11FF0932703BC
:1046B000E093260386E293E0F401099586E0E2E3C5
:1046C000F3E0DE01119601900D928A95E1F790904A
:1046D0003403809035031091360300913703109214
:1046E0003403109235031092360310923703892D4C
:1046F000882909F448C080913003909131030E94C9
:1047000010069C0190912F03992309F4A0C3233331
:104710003105C8F19F3F19F09F5F90932F039920B7
:1047200059F00E94CE099FEF19140CF491E0899F73
:10473000802D112480933403882059F00E94CE09E3
:104740009FEF18140CF491E0899F802D1124809321
:104750003503309134033323B1F020913503222304
:1047600091F045EB3403C0011124992309F470C181
:104770009093340345EB240390011124332309F46F
:104780006BC130933503812F802B09F448C0809191
:104790002D0390912E030E9410069C0190912C03F2
:1047A000992309F44FC325363105C8F19F3F19F00D
:1047B0009F5F90932C03112359F00E94AC099FEF47
:1047C00011160CF491E0899F802D112480933603FB
:1047D000002359F00E94AC099FEF10160CF491E0F1
:1047E000899F802D11248093370330913603332322
:1047F000B1F020913703222391F045EB3403C0013F
:104800001124992309F42CC19093360345EB24031A
:1048100090011124332309F427C130933703809189
:10482000340390913503892B90913603892B909115
:104830003703892B11F00E942A0886E0FE01319689
:10484000A2E3B3E001900D928A95E1F70E9474070C
:1048500090913803891731F00E94740780933803D0
:104860000E94180B80919203843009F097CE83E068
:104870008093E9008091E80082FF90CE8091E8006B
:1048800090E085FF06C00E949F04882309F4F0C0D1
:1048900091E08091E8008B778093E800992309F4F8
:1048A0007DCEE981E150E33108F064C1F0E0ED5DD7
:1048B000F64D0C94B92780919203843021F180E069
:1048C0000E94180B109225030FB6F894A895E09259
:1048D00060000FBEB092600083B7817F846083BFA9
:1048E00083B7816083BF7894889583B78E7F83BFB9
:1048F0000FB6F894A895809160008861809360005D
:10490000109260000FBE80919103882361F00E9495
:104910006F11E5E5F3E081919191892B09F05AC27D
:10492000CE16DF06C1F780919203853009F4C3CF1C
:104930000E944B140E9474070E94180B36CE6F5FC2
:10494000880C991C6A3009F054CE0F5F1F4F0A3053
:10495000110509F03FCE8FEF8EA38FA318A60E94FA
:104960001F068160782F9AA789A74EA15FA168A52D
:104970008AA50E94F61F64CE863059F4F0E0E9550E
:10498000F84FE4910E2F10E0BFE58B2EB1E19B2E86
:1049900070CE893061F4E695F0E0EC55F84FE49183
:1049A0000E2F10E0A9E38A2EAFE09A2E62CE8F3050
:1049B00061F4E695F0E0EF55F84FE4910E2F10E02A
:1049C000F3E68F2EFFE09F2E54CE853159F4F0E0B0
:1049D000E256F84FE4910E2F10E0E1ED8E2EEFE05D
:1049E0009E2E47CE08E210E05FE1852E50E1952E25
:1049F000883109F43ECE833249F4ECE9F7E00591C1
:104A0000149172EF872E70E1972E33CE04EF11E0F0
:104A100048EA842E40E1942E843209F42ACE00ED37
:104A200017E03AE0832E36E0932E853209F021CE4E
:104A30008E2F63E00E947727E92FF0E0E756F84FCA
:104A4000E4910E2F10E068E1862E62E1962E11CEE1
:104A500081E0809334038ECE81E08093350393CE42
:104A600081E080933603D2CE81E080933703D7CEA6
:104A700000E210E0CE0101964C018091E80085FD36
:104A80000AC08091E8008B778093E8000E949F0421
:104A9000882399F3FDCE8091F100F40181934F01B9
:104AA0000150110951F7F4CE1A8289E08B831AC0A4
:104AB0008A81823009F4BDC18330D9F1813009F097
:104AC00059C02FB7F8946091690370916A0380917F
:104AD0006B0390916C032FBF0E94BF276B837C8375
:104AE0008D839E8380919203843009F057CD10917D
:104AF000E9001F709091EC00892F817090FD80E893
:104B0000182B82E08093E9008091E80080FF0DC0BF
:104B100050E040E060E270E0CE0101960E94D004D7
:104B20008091E8008E778093E8001F701093E90071
:104B300035CDDE011196E5E5F3E080819181329675
:104B400012969C93129713968C931397129623E0C8
:104B5000E936F20791F7C6CF8A81823059F46B812A
:104B60007C818D819E810E94BF2785E290E00E941A
:104B70005228B8CF8FEF8983B5CF4C816B818A8162
:104B80000E94310B9827892798279E838D83AACF6F
:104B90008D809E809824892498248A810B8144E109
:104BA000049F8001112498EC899F000D111D112490
:104BB0008C8190E0880F991F080F191F692DC8017B
:104BC00086960E945228682DC8018796D0CF0E94F1
:104BD0005E0D88CF8A818138C1F060F4803809F099
:104BE00081CF20E04B8160915203809151030E945C
:104BF000431378CF823859F1833809F073CF20E01E
:104C0000409153036C818B81F2CF60E08B810E94D5
:104C100027179B8180915003911111C08E7F809343
:104C2000500310924F03EFEFF0E722E0E150F04025
:104C30002040E1F700C000000E94040F53CF8160C4
:104C40008093500360E086950E9427174BCF8B819D
:104C50008093540347CF8A81813899F030F48038AB
:104C600009F040CF8091530321CF823891F08338EF
:104C700009F038CF809151038B83809152038C834C
:104C800031CF8091500380FF02C086950FCF80E026
:104C90000DCF809154030ACF60915003709151035E
:104CA00080915203909153030E9431131BCF80E1F6
:104CB0008A8318CF1A828AEBF9CE0A811B811027CA
:104CC00001271027CE0101963C018C80FC01E80DE4
:104CD000F11D4F01C8018A5B9C4F6814790409F4E7
:104CE00001CF0A3B110550F40E943E28F301848352
:104CF0000F5F1F4FFFEF6F1A7F0AECCFF301148293
:104D0000F7CF0A811B81102701271027CE010196BA
:104D10003C018C80800E912E911CC8018A5B9C4FB7
:104D20008016910609F4DECE0A3B110520F4F3014A
:104D300064810E945228FFEF6F1A7F0A0F5F1F4F96
:104D4000ECCF0E94B40DCECE84E0B2CF0A811B819D
:104D5000102701271027CE0101963C018C80FC0111
:104D6000E80DF11D4F01C80186968614970409F4D9
:104D7000B9CE0032F3E01F0750F40E943E28F30141
:104D800084830F5F1F4FFFEF6F1A7F0AECCFF30191
:104D90001482F7CF0A811B81102701271027CE012B
:104DA00001963C018C80800E912E911CC801869644
:104DB0008016910609F496CE0032E3E01E0720F437
:104DC000F30164810E945228FFEF6F1A7F0A0F5F80
:104DD0001F4FECCF09BD19BD09B400FEFDCF809176
:104DE000D8008F7D8093D8008091E000826080930E
:104DF000E0008091E00081FDFCCF0E944B1493CD38
:104E000060E085E290E00E9452280E945E0D0E94C0
:104E1000B40D61E282E290E00E94522864E083E2F5
:104E200090E00E94522863E284E290E00E945228BF
:104E30004DCB85E290E00E943E281B821C821D82A1
:104E40008E8350CE2D32314008F0B2CCE8CC2D32DA
:104E5000314008F061CC97CC78941F921FB61F9216
:104E600011248F939F93AF93BF9380916903909187
:104E70006A03A0916B03B0916C030196A11DB11D53
:104E80008093690390936A03A0936B03B0936C03C0
:104E9000BF91AF919F918F911F901FBE1F9018954A
:104EA0001F921FB61F9211248F939F93AF93BF93AE
:104EB00080912503811113C08091690390916A0349
:104EC000A0916B03B0916C034196A11DB11D80931D
:104ED000690390936A03A0936B03B0936C03BF9133
:104EE000AF919F918F911F901FBE1F901895991B96
:104EF00079E004C0991F961708F0961B881F7A95D1
:104F0000C9F78095089587FB082E062687FD8195B1
:104F100067FD61950E9477270EF4919507FC8195B6
:104F20000895AA1BBB1B51E107C0AA1FBB1FA617F0
:104F3000B70710F0A61BB70B881F991F5A95A9F742
:104F400080959095BC01CD01089597FB072E16F42E
:104F5000009407D077FD09D00E94912707FC05D067
:104F60003EF4909581959F4F0895709561957F4F80
:104F70000895EE0FFF1F0590F491E02D0994692725
:104F80009627692778278727782708950E94DA28A7
:104F9000332312F48A1B9B0B0C94D0270E94DA282F
:104FA000B7FF0895821B930B08958F929F92AF9243
:104FB000BF92CF92DF92EF92FF92CF93DF93EC01FB
:104FC000688179818A819B816115710581059105CF
:104FD00021F464E279ED8BE597E02DE133EF41E0D8
:104FE00050E00E94862849015A019B01AC01A7EAC2
:104FF000B1E40E94A5286B017C01ACEEB4EFA501E1
:1050000094010E94B328DC01CB018C0D9D1DAE1DC7
:10501000BF1DB7FF03C00197A109B04888839983DA
:10502000AA83BB839F77DF91CF91FF90EF90DF90B2
:10503000CF90BF90AF909F908F9008950E94D527FA
:10504000089580E091E00E94D5270895B0E0A0E0A7
:105050008093000190930101A0930201B09303019A
:105060000895FC014150504030F001900616D1F7F0
:105070003197CF010895882799270895F999FECF90
:1050800092BD81BDF89A992780B50895A6E1B0E058
:1050900044E050E00C947828A8E1B0E042E050E011
:1050A0000C947828262FF999FECF92BD81BDF89AED
:1050B000019700B4021639F01FBA20BD0FB6F8945C
:1050C000FA9AF99A0FBE08950396272F0E94532843
:1050D0000E945228252F0E945328242F0C945328D5
:1050E0000196272F0E9453280C945228DC01CB01F3
:1050F000FC01F999FECF06C0F2BDE1BDF89A3196E8
:1051000000B40D9241505040B8F70895052E97FB1A
:105110001EF400940E949D2857FD07D00E94B828D5
:1051200007FC03D04EF40C949D2850954095309583
:1051300021953F4F4F4F5F4F089590958095709503
:1051400061957F4F8F4F9F4F08950E94DA28A59F4A
:10515000900DB49F900DA49F800D911D1124089572
:10516000B7FF0C94A5280E94A528821B930B0895D5
:10517000A1E21A2EAA1BBB1BFD010DC0AA1FBB1F5B
:10518000EE1FFF1FA217B307E407F50720F0A21BCD
:10519000B30BE40BF50B661F771F881F991F1A943A
:1051A00069F760957095809590959B01AC01BD0164
:1051B000CF010895A29FB001B39FC001A39F700DBE
:1051C000811D1124911DB29F700D811D1124911D0F
:1051D0000895F894FFCF490D490D520D520D540D0D
:1051E000520D520D520D490D490D590D520D520DD2
:1051F000590D45156D15C0156D15C015A015D8159F
:10520000C015D516E216481B481BBD1BBD1B171C3D
:10521000311C7F1B7F1B3C1C121D231D231D6F1A7D
:10522000961A9D1AA21AA71AAC1AB11AB61ABB1A64
:10523000C01AC51ACA1ACD1AD21AD51AD81ADB1A28
:10524000DE1AE11AE41A54255825AC25BD25C825D7
:10525000E725EA252B264C26BA25BA2557265A26B5
:0C5260005D268126A126A426A626CA26CB
:10526C000100000001191A1B1C1D1E1F2021220108
:10527C0002010D061F0EFE0DFA0DF60D01000102C6
:10528C000202020606060909090909090F0F0F0F88
:10529C000F0F151515181919191919191919191993
:1052AC002324252525252525818283E200E900EA92
:1052BC0000B500B600B700CD008301CC008A019286
:1052CC000194012102230224022502260227022A2C
:1052DC0002B300B4006F007000303132333790915C
:1052EC009293F6959496973435F56667F74022B607
:0C52FC0084016201AC00C007D907F9076B
:00000001FF
