:100000000C945F040C94A6040C94A6040C94A6040F
:100010000C94A6040C94A6040C94A6040C94A604B8
:100020000C94A6040C94A6040C94F7200C94B32012
:100030000C947F270C94A6040C94A6040C94A6049C
:100040000C94A6040C94A6040C94A6040C94A60488
:100050000C94A6040C945B270C94A6040C94A604A0
:100060000C94A6040C94A6040C94A6040C94A60468
:100070000C94A6040C94A6040C94A6040C94A60458
:100080000C94A6040C94A6040C94A6040C94A60448
:100090000C94A6040C94A6040C94A6040C94A60438
:1000A0000C94A6040C94A6040C94A6040501090261
:1000B000A10185020901A1000509190129081500FE
:1000C0002501950875018102050109300931158165
:1000D000257F95027508810609381581257F9501D0
:1000E00075088106050C0A38021581257F95017572
:1000F000088106C0C005010980A101850319012AF4
:10010000B700150126B700950175108100C0050CD8
:100110000901A101850419012AA002150126A002E6
:10012000950175108100C005010906A1018505052D
:100130000719E029E71500250195087501810205D9
:1001400007190029EF1500250195F07501810205B9
:10015000081901290595057501910295017503910D
:1001600001C00660FF0961A1010962150026FF00B8
:100170009520750881020963150026FF00952075FA
:10018000089102C005010906A101050719E029E748
:1001900015002501950875018102950175088101F9
:1001A0000507190029FF150026FF0095067508812F
:1001B000000508190129059505750191029501753C
:1001C000039101C0000101010101010101010202CD
:1001D00002020202020202030303030303030304F5
:1001E00004040404040405050505050606060606C0
:1001F000070707070708080808090909090A0A0A7A
:100200000B0B0B0C0C0C0D0D0D0E0E0E0F0F0F101B
:1002100010111111121213131414151516161717A5
:10022000181819191A1A1B1B1C1D1D1E1E1F202011
:10023000212222232424252626272829292A2B2C5B
:100240002D2D2E2F30313232333435363738393A7E
:100250003B3C3D3E3F404142434445464748494A76
:100260004C4D4E4F50515354555658595A5B5D5E44
:100270005F616264656668696B6C6D6F70727375DF
:1002800077787A7B7D7E8082838587888A8C8E8F43
:1002900091939596989A9C9EA0A2A3A5A7A9ABAD71
:1002A000AFB1B3B5B7BABCBEC0C2C4C6C9CBCDCF5F
:1002B000D1D4D6D8DBDDDFE2E4E7E9EBEEF0F3F50D
:1002C000F8FAFDFFFFAA7F55402223252628292A78
:1002D0002C2D2F3032333536383A3B3D3E404243A9
:1002E0004547494A4C4E5051535557595A5C5E60E8
:1002F00062646668696B6D6F71737577797B7D7FFA
:1003000081838587898A8C8E90929496989A9C9EF8
:100310009FA1A3A5A7A8AAACAEAFB1B3B4B6B8B914
:10032000BBBCBEBFC1C2C3C5C6C7C9CACBCCCDCE7C
:10033000D0D1D2D2D3D4D5D6D7D7D8D9D9DADADB5F
:10034000DBDBDCDCDCDCDCDDDDDDDDDCDCDCDCDCEB
:10035000DBDBDBDADAD9D9D8D7D7D6D5D4D3D2D22A
:10036000D1D0CECDCCCBCAC9C7C6C5C3C2C1BFBE12
:10037000BCBBB9B8B6B4B3B1AFAEACAAA8A7A5A37D
:10038000A19F9E9C9A98969492908E8C8A8987853C
:1003900083817F7D7B79777573716F6D6B6968661B
:1003A0006462605E5C5A5957555351504E4C4A49ED
:1003B00047454342403E3D3B3A3836353332302F95
:1003C0002D2C2A29282625232229003A003B003CEF
:1003D000003D003E003F0040004100420043004419
:1003E00000450049004A004B0046004C004D004EBD
:1003F00000470035001E001F0020002100220023BE
:100400000024002500260027002D002E002A002AA7
:100410000053005400550048002B0014001A000837
:1004200000150017001C0018000C00120013002F0C
:1004300000300031005F00600061005600390004A8
:10044000001600070009000A000B000D000E000F47
:100450000033003400320028005C005D005E00576D
:1004600000E10064001D001B0006001900050011DA
:10047000001000360037003800E500520059005ADD
:10048000005B005800E000E300E2002C00E600E71B
:10049000006500E400500051004F00620063005806
:1004A00000005C00000100010001000100010001EA
:1004B0000001000100010001000100010001000134
:1004C0000001000100010001000100010001000124
:1004D0000001000100010001000100010001000114
:1004E0000001000100010001000100010001000104
:1004F00000010001000100010001000100010001F4
:1005000000010001000100010001000100010001E3
:1005100000010001000100010001000100010001D3
:1005200000010001000100010001000100010001C3
:1005300000010001000100010001000100010001B3
:1005400000010001000100010001000100010001A3
:100550000001000100010001000100010001000193
:100560000001000100010001000100010001000183
:100570000001000100010001000100010001000074
:100580000001000100010001000100010001000163
:100590000001000100010001000100010001000153
:1005A0000001000100010001000100010001000143
:1005B0000001000100010001000100010001000133
:1005C0000001000100010001000100010001000123
:1005D0000001000100010001000100010001000113
:1005E0000001000100010001000100010001000103
:1005F00000010001000100010001000100010001F3
:1006000000010001000100010001000100010001E2
:1006100000010001000100010001000100010001D2
:1006200000010001000100010001000100010001C2
:1006300000010001000100010001000100010001B2
:1006400000010001000100010001000100010001A2
:100650000001000100010001000100000001000193
:100660000001000100010001000100010001000182
:100670000001000100010001000100010001000172
:100680000001000100010001000100010001000162
:100690000001000100010001000100010001000152
:1006A0000001000100010001000100010001000142
:1006B0000001000100010001000100010001000132
:1006C0000001000100010001000100010001000122
:1006D0000001000100010001000100010001000112
:1006E0000001000100010001000100010001000102
:1006F00000010001000100010001000100010001F2
:1007000000010001000100010001000100010001E1
:1007100000010001000100010001000100010001D1
:1007200000010001000100010001000100010001C1
:1007300000010001000100000000000000000000B6
:1007400000000000000000000000000000000000A9
:10075000000000000000000000000000007E0F000C
:10076000D4FFFFFFC7000000780000000000000079
:10077000002A2B28000000000000000000000000FC
:100780000000000029000000002C1E34202122243B
:10079000342627252E362D3738271E1F20212223C9
:1007A0002425263333362E37381F0405060708095B
:1007B0000A0B0C0D0E0F1011121314151617181921
:1007C0001A1B1C1D2F3130232D350405060708097F
:1007D0000A0B0C0D0E0F1011121314151617181901
:1007E0001A1B1C1D2F3130354C1E0F0500047F3F96
:1007F0001F643214643214783C1E1E140A05090268
:100800005B00030100A0FA090400000103010100DC
:100810000921110100012240000705810308000A97
:100820000904010002030000000921110100012256
:1008300022000705820320000107050303200001B1
:100840000904020001030000000921110100012236
:10085000B6000705840320000A1201100100000001
:1008600008424318180100010200012C03430068EC
:1008700000650072007200790042002E005300747F
:10088000007500640069006F0020004300420031E1
:100890000038003000300000001E0343006800658F
:1008A0000072007200790042002E0053007400753F
:1008B00000640069006F00000004030904001124B3
:1008C0001FBECFEFDAE0DEBFCDBF04B603FE27C008
:1008D00080918A0390918B03A0918C03B0918D033A
:1008E0008730904BA740B04BD1F410928A031092FE
:1008F0008B0310928C0310928D0314BE84B7877FF4
:1009000084BF0FB6F894A8958091600088618093A9
:100910006000109260000FBEE0E0F8E3099523E06C
:10092000AEE9B1E001C01D92AA38B207E1F711E0CB
:10093000A0E0B1E0EAECF2E502C005900D92AE391C
:10094000B107D9F70E94CE210C9418290C9400000D
:10095000E8EDF0E080818E7F80831092E2001092BB
:10096000DA001092E100A0EEB0E08C9181608C93EF
:1009700080818F77808319BCA7EDB0E08C918E7F4A
:100980008C9380818F7E80831092540308952091F0
:10099000E4003091E50095E6A9012091EC00822F5A
:1009A000817020FF06C08091E80080FF06C080E0D3
:1009B00008952091E80022FD1AC0809179038823D0
:1009C00089F0853089F08091EB0085FD0FC0209182
:1009D000E4003091E50042175307F9F29150E1F637
:1009E00084E0089582E0089583E0089581E0089509
:1009F000EF92FF920F931F93CF937C018B010E9484
:100A0000C704C82F811117C08091E80085FD0BC075
:100A10008091E8008E778093E8000E94C7048823C5
:100A200099F3C82F08C0F70181917F018093F100ED
:100A30000150110949F78C2FCF911F910F91FF9011
:100A4000EF90089580917B0387FF13C08091E800A9
:100A500082FF06C08091E8008B778093E80004C095
:100A6000809179038111F2CF0895809179038823D1
:100A7000D9F38091E80080FFF8CF8091E8008E776D
:100A8000ECCF982F9093E900242F762F50E0891710
:100A900031F07091EC002091ED005091F00021FDBB
:100AA00007C09F5F973071F78093E90081E0089558
:100AB0003091EB003E7F3093EB003091ED003D7FB5
:100AC0003093ED003091EB0031603093EB00709388
:100AD000EC002093ED005093F0002091EE0027FDF4
:100AE000E0CF80E00895CF92DF92EF92FF920F93D4
:100AF0001F93CF93DF93C8EDD0E088818F7E8883EA
:100B0000E7EDF0E080818160808384E082BF81E056
:100B10008093540388818E7F888302EE10E0F80171
:100B200010821092DA0081EEC82ED12CF6011082CC
:100B300088818F77888388818068888388818F7D8A
:100B4000888319BC1092790310927A03109278036B
:100B50001092770390EEE92EF12CF70180818B7FC4
:100B6000808388818160888342E060E080E00E9429
:100B70004105F60180818E7F8083F801808181604C
:100B80008083808188608083F70180818E7F80836D
:100B9000888180618883DF91CF911F910F91FF90B1
:100BA000EF90DF90CF900895FC01809181039091A8
:100BB000820386179707A0F06115710529F49091BB
:100BC000E8009E779093E80090E06115710551F47C
:100BD000911108C08091E80082FF34C080E0089540
:100BE000BC01F2CF809179038823C1F18530C1F136
:100BF0008091E80083FD30C08091E80082FDEACF5B
:100C00008091E80080FFE1CF8091F3002091F20015
:100C1000382F6115710519F02830310558F091E031
:100C20002830310509F090E02091E8002E772093DC
:100C3000E800CBCF81918093F100615071092F5F63
:100C40003F4FE7CF80917903882341F0853041F011
:100C50008091E80083FFBECF81E0089582E008958F
:100C600083E00895089580E00895809156030895E3
:100C70009C014FB7F8948091500390915103A0913B
:100C80005203B09153034FBF821B930B08952FB7AC
:100C9000F8948091500390915103A0915203B09128
:100CA00053032FBF089520911C012223C9F02091E6
:100CB000070327FF15C0E62FE695E695E695EE318A
:100CC000D8F4E80FF92FF11D677021E030E001C082
:100CD000220F6A95EAF720958281282322830895BE
:100CE000FC01329608962191621303C0DF0111972F
:100CF0001C92E817F907B9F7089520911C012223E7
:100D0000C1F02091070327FF14C0E62FE695E69572
:100D1000E695EE31F8F4E80FF92FF11D677021E048
:100D200030E001C0220F6A95EAF78281822B82832C
:100D30000895FC0132962FEF30E04191641751F095
:100D40002F3F19F4411101C0232F3F5F3630A9F71F
:100D50002F3F09F40895820F911D27FD9A95FC01FC
:100D6000628308958091EE0281111092EE0208953F
:100D70008091ED029091EC02892B9091EB02892BEE
:100D80008093A0019091EE029923A1F0892B80938A
:100D9000A00180911C01882341F18091070387FF06
:100DA00024C08EE1E2EAF1E090E0815000F591117B
:100DB0000E94B206E0910A03F0910B033097E1F034
:100DC00080911C01882359F08091070387FF07C099
:100DD0008091A0018093A10185E08093A001028011
:100DE000F381E02D80EA91E0099486E0DBCF219148
:100DF0002223D9F29F5FD9CF08952BE0929F800DD7
:100E00001124982F977086958695869525E0829F68
:100E1000F0011124EC55FD4F50E040E080E02191BD
:100E200030E0092E02C0369527950A94E2F721702A
:100E30003327042E01C0220F0A94EAF7822B4F5F5A
:100E40005F4F4530510559F708952BE0929F800D73
:100E50001124982F977041E001C0440F9A95EAF74A
:100E600086958695869595E0899FF0011124EC552D
:100E7000FD4F90E080E070E05191DF0111979B0100
:100E8000082E02C0369527950A94E2F72170219525
:100E90002527242325272C9301968530910561F77A
:100EA00008958091A30290917202981301C0089551
:100EB0008F5F8770FACF882341F080959091ED0283
:100EC00089238093ED020C94B8060895882339F0A5
:100ED0009091ED02982B9093ED020C94B806089532
:100EE00020916802309169022817390771F09093B8
:100EF000690280936802E0910A03F0910B03309736
:100F000021F00084F185E02D099408952091660276
:100F1000309167022817390771F090936702809328
:100F20006602E0910A03F0910B03309721F00680EE
:100F3000F781E02D09940895E0910A03F0910B03E5
:100F4000309721F00190F081E02D099480E0089520
:100F5000FA01811101C0FB01099480913703982F98
:100F60009E7F29F4817082608093370308958635CF
:100F7000E8F381708465F8CFAF92BF92DF92EF9271
:100F8000FF920F931F93CF93DF93082F162FE90142
:100F9000E42FF0E0EC53FE4F611110C0E4915E2F9E
:100FA0004E2F4983E8835A83DF91CF911F910F9190
:100FB000FF90EF90DF90BF90AF900895E62EF12C58
:100FC0004491D42EE42FF0E026E0829FC00111244A
:100FD0002FEF30E0B9010E94C027802F90E0880FEA
:100FE000991F55E5569FD001579FB00D11248A1BBC
:100FF0009B0B982F990F890F5901AE18BF08AE9E11
:10100000D001AF9EB00DBE9EB00D11245B2F189F76
:1010100080011124012F11275901A01AB10AAE9E97
:101020008001AF9E100DBE9E100D11245901A81A0B
:10103000B108AE9CC001AF9C900DBE9C900D1124D8
:10104000892F9927281B390B2E9FC0012F9F900DA8
:101050003E9F900D1124E92F62307105A1F050F4EC
:101060006115710509F49DCF6130710581F0EB2F99
:10107000512F97CF6430710569F080F066307105AB
:1010800009F48FCFF4CFE42F4B2F592F8ACFE42FC1
:10109000412F87CFEB2F542F492F83CF4B2F5D2D1F
:1010A000E12F7FCF0E9447069C0190911B03809106
:1010B0001C03982B21F03093180320931703909171
:1010C0001D0380911E03982B21F03093150320936C
:1010D0001403E0910A03F0910B03309749F082E08A
:1010E000809319030480F581E02D89E193E0099450
:1010F000089590E080E00E94860790E080E00E94E2
:1011000070071092EC021092EB020E94B80686E083
:10111000E9E1F3E0DF011D928A95E9F710921603E9
:101120001092130310926B020C9452086093860382
:101130007093870380938803909389030C947908B4
:101140000F931F93609186037091870380918803AA
:10115000909189038B019C01067011272227332768
:10116000063011052105310529F468601F910F91A2
:101170000C949608677FFACF0F931F9341E050E0DD
:1011800060E070E004C0440F551F661F771F8A950A
:10119000D2F7CB01BA01609570958095909500913A
:1011A000860310918703209188033091890360237F
:1011B0007123822393231F910F910C949608909191
:1011C000EA02809589238093EA02282F277071F420
:1011D000282F082E000C330B9217130639F0859533
:1011E000859585950E94BC081092EA0208950F9398
:1011F0001F9341E050E060E070E004C0440F551FD1
:10120000661F771F8A95D2F7809186039091870396
:10121000A0918803B09189038A019B01082B192BA7
:101220002A2B3B2BC901B8011F910F910C949608F2
:101230006093EF027093F0028093F1029093F202B8
:101240000C94790840911B03803F59F480911C0352
:1012500087FF0DC010921C0341110BC010921603A2
:1012600008C0813F81F480911C0318169CF344232D
:1012700081F080911D0390911E03892B09F05AC0C3
:10128000109213030895823F49F447FFF0CF109264
:101290001B0380911C038111ECCFE0CF833F19F435
:1012A0001416ACF3E4CF90911D03893F29F419166D
:1012B000F4F610921D03DBCF8A3F19F497FFD7CFC6
:1012C000F8CF90911E038B3F29F497FFD0CF109257
:1012D0001E03CDCF8C3F19F41916CCF3C8CF9CE078
:1012E000980F953090F4845F990B21E030E0B901BC
:1012F00002C0660F771F8A95E2F7CB018095909127
:101300001A03892380931A03B2CF8D3F31F4809161
:101310006B028E7F80936B02AACF8E3F21F4809167
:101320006B028D7FF7CF8F3F09F0A1CF80916B02C9
:101330008B7FF0CF08958823B1F19CEF980F913AFD
:1013400038F4682F80EA91E00E9453060C94B806A6
:1013500090E2980F983088F4877021E030E0A9017E
:1013600002C0440F551F8A95E2F7CA0180959091FB
:10137000ED0289238093ED02E9CF9BE5980F93302E
:1013800020F490E080E00C94860798E5980F973160
:1013900020F490E080E00C947007803F20F00E94E1
:1013A00022090C945208089580916B0280FD16C0AA
:1013B00081FD16C082FD16C0809113038823A1F021
:1013C000883280F428E0829FC001112468E270E036
:1013D0000E94D427862F672B39F0089582E0089564
:1013E00084E0089588E0089581E0089580916B027B
:1013F00080FD14C081FD14C082FD16C080911603CB
:10140000882381F0843180F422E3829FC00111247B
:1014100064E170E00E94D427862F08958CE008953F
:1014200089E1089585E0089582E30895803F31F4CD
:101430000E94F609819580931C030895813F19F459
:101440000E94F609F8CF823F31F40E94F609819597
:1014500080931B030895833F19F40E94F609F8CF87
:10146000893F29F40E94D40980931D0308958A3F7F
:1014700021F40E94D4098195F7CF8B3F31F40E946B
:10148000D409819580931E0308958C3F19F40E941E
:10149000D409F8CF9CE0980F953070F4845F990BD5
:1014A00021E030E001C0220F8A95EAF780911A030B
:1014B000822B80931A0308958D3F31F480916B0243
:1014C000816080936B0208958E3F21F480916B02BE
:1014D0008260F7CF8F3FB9F780916B028460F1CFC4
:1014E000CF93C82F882309F46FC08CEF8C0F813AFB
:1014F000C0F580911C01882311F18091070387FFBB
:101500001EC0EC2FE695E695E695F0E0E056FE4F1E
:10151000828190E04C2F477021E030E002C0220F22
:10152000331F4A95E2F782239323892B91F06C2F86
:1015300080EA91E00E9453060E94B8060AC0E2EADF
:10154000F1E088EA91E02191C21789F38E179F0795
:10155000D1F76C2F80EA91E00E947D06CF910C9428
:10156000B80680E28C0F883068F4C77021E030E064
:1015700001C0220FCA95EAF78091ED02822B809379
:10158000ED02ECCFEBE5EC0FE33040F4F0E0E85B8C
:10159000FE4F808190E0CF910C948607E8E5EC0F38
:1015A000E73150F4F0E0EE0FFF1FE55BFE4F808166
:1015B0009181CF910C947007C03F30F08C2F0E9426
:1015C000160ACF910C945208CF910895F894E82F01
:1015D000E295EF70F0E031A1282F2F7081E090E0CC
:1015E00001C0880F2A95EAF7982F9095932391A32D
:1015F00092A1892B82A3789408959091070392FF7A
:1016000006C0282F28712830F9F4877F846093FF63
:1016100006C0282F28712831F1F4877E846120913B
:10162000080320FF06C0382F38713830D9F4877F7F
:10163000816021FF06C0282F28712831D1F4877ED0
:10164000816194FD877E0895282F24712430F9F656
:101650008B7F8860DCCF282F2471243101F78B7EAB
:101660008861DDCF382F3171313019F78E7F886076
:10167000E0CF282F2171213121F78E7E8861E1CFC3
:1016800080FF08C08E9A81FF07C08D9A82FF06C036
:101690008F9A08958E98F7CF8D98F8CF8F980895E8
:1016A000CF9384E090E00E946D28C82F81E290E003
:1016B0000E946D28982F8C2FCF9108950F931F9320
:1016C000CF93DF93C42FD0E0CC0FDD1F26E1629FC4
:1016D000C00DD11D11243CED839FC00DD11D1124DF
:1016E000CE0186960E946D28082F10E0102F00274B
:1016F000CE0187960E946D289801282BC901DF91A1
:10170000CF911F910F910895462F843038F47A308D
:1017100028F46B3018F4672F0C945E0B90E080E097
:101720000895CF93DF930E94840BEC0182389105DA
:10173000A9F1D8F58133910509F496C048F58932AD
:10174000910509F48AC08A9709F495C0C11521E56D
:10175000D20708F0BCC0C11530E5D30708F014C1AA
:10176000C83ED10508F09CC0C03ED10560F5C83A1E
:10177000D10508F087C0C53AD10508F0FDC0C130D9
:10178000D10509F12097F9F0C430D105E0F440C04B
:101790008533910509F45AC0C997C1F680910703B2
:1017A000837089F0C0EED0E00EC0833E910599F1C0
:1017B00070F4803E910501F1823E910539F68091E9
:1017C000070382FD21C0CE01DF91CF910895863EAF
:1017D000910561F1873E910571F1843E910509F013
:1017E000B5CF8091080381FFEECF80910703C7EE4C
:1017F000D0E084FD0DC0E7CF8091070380FD12C1CA
:101800009091080390FFDFCFC3EED0E084FFDBCFE1
:10181000D0E0C0E0D8CF8091070382FD06C190914F
:10182000080390FDBFCF84FFCECFF2CF8091070396
:1018300083FDDDCFC8CF8091070383FDF9C0909170
:10184000080391FFF0CFC4EED0E0BDCF8091070335
:1018500085FFB9CFC9E2D0E0B6CF8091070385FFFD
:10186000B2CFC5E3D0E0AFCF8091070386FFABCF07
:10187000CAE2D0E0A8CF8091070386FFA4CFC1E3DE
:10188000D0E0A1CFCF3BD10518F6C85AD0E0CC0F9D
:10189000DD1FC55BDE4F0990D881C02DD46493CF86
:1018A000C11540E2D40758F4C11581E0D80708F00B
:1018B0008ACFC03FD10508F4ABCFD06584CFC11526
:1018C00090E4D90708F4A4CFDF70D06A7CCFC115AB
:1018D00025E5D20700F5C11534E5D30708F08AC025
:1018E000C11543E5D40708F071C0C11582E5D807DA
:1018F00008F467C0CE018370992721E030E002C070
:10190000220F331F8A95E2F7C695C69580E2C89FDD
:10191000E001112452C0C11599E5D907A8F4C115F9
:1019200028E5D20708F06BC0C11536E5D30708F0EB
:101930006FCF8C2F0E94FD0AC82FD0E0DC2FCC2760
:10194000CC27DF71D0623FCFC1154AE5D40708F438
:101950005BC0CE0190568115904208F059CF8D2F73
:101960008F710E94FD0A90E0982F882788279F7129
:101970009C012C2BE901E6CFC55AD0E0C85BDE4FB5
:10198000C881D0E0D0641FCFCE01E4E09695879562
:10199000EA95E1F783702C2F26952695237040E277
:1019A000249F90011124382B8C2F8370C1E0D0E04C
:1019B00002C0CC0FDD1F8A95E2F7C22BD32BDC6867
:1019C00002CFDC2FCC27C16FD06AFDCECE01837051
:1019D000992721E030E002C0220F331F8A95E2F7F9
:1019E000C695C69590E2C99FE0011124C22BD32B66
:1019F000DA68E9CEDC2FCC27C46FD06AE4CEDC2FC6
:101A0000CC27C06FD06ADFCE8C2F8F700E94FD0A6A
:101A100034E0D695C7953A95E1F7CF709C2FEC014D
:101A2000D069D1CEC9E3D0E0CECEC2EED0E0CBCEED
:101A3000C6EED0E0C8CEBF92CF92DF92EF92FF9277
:101A40000F931F93CF93DF938C01C0908603D090A8
:101A50008703E0908803F09089038091EF029091D2
:101A6000F002A091F102B091F202C82AD92AEA2A22
:101A7000FB2ACFE1D0E0BC2ED701C6010C2E04C05A
:101A8000B695A795979587950A94D2F780FD0EC0D5
:101A9000219788F7B12C8B2DDF91CF911F910F915A
:101AA000FF90EF90DF90CF90BF900895B8018C2FFA
:101AB0000E94910B019761F3EECFCF93DF93EC017E
:101AC0000E941B0DBE01DF91CF910C94910B0E94DF
:101AD0005D0D292F2F7092959F7092509E3078F453
:101AE000E92FF0E0E65EF64D0C94E827803F19F010
:101AF00020F4883E20F481E00895843FE1F380E003
:101B00000895883EC0F3813FD1F7F5CF822F8695A7
:101B10008695869508956F927F928F929F92AF924D
:101B2000BF92CF92DF92EF92FF920F931F93CF93CA
:101B3000DF9389ECC82E83E0D82E98E1E92EFF24AC
:101B4000F394E701CC5DD10936011BC0F501859006
:101B50009490692DC8010E948128682DC8010196C2
:101B60000E94812882E0A80EB11C0E5F1F4FC01793
:101B7000D10761F786E1680E711C6696CE15DF0508
:101B800029F08E01065111095301E0CF7E018CED41
:101B9000E80EF11C8CEDC80ED11C88E8E81684E034
:101BA000F80679F6DF91CF911F910F91FF90EF909A
:101BB000DF90CF90BF90AF909F908F907F906F906D
:101BC0000895CF93DF93C6E9D3E060E0CE010E9491
:101BD00081282196C11584E0D807B9F7DF91CF910C
:101BE0000895CF93DF9300D00F92CDB7DEB79091D9
:101BF0007903943011F589837B836A839093E9009C
:101C00008FEF9091E800815095FD06C095ED9A9573
:101C1000F1F700008111F5CF8091E80085FF0DC03C
:101C200050E040E063E070E0CE0101960E94F804CD
:101C30008091E8008E778093E8000F900F900F90CE
:101C4000DF91CF910895BC0184E00C94F10DBC01AB
:101C500083E00C94F10D9C0184E08093E9009FEFF8
:101C60008091E800915085FD06C085ED8A95F1F7D9
:101C700000009111F5CF8091E80085FF0CC050E085
:101C800040E066E070E0C9010E94F8048091E8003D
:101C90008E778093E8000895CF93DF93EC018091D5
:101CA0001C018823B1F18091070387FF32C060E2F5
:101CB00084E08093E9008FEF9091E800815095FDDA
:101CC00006C095ED9A95F1F700008111F5CF80914E
:101CD000E80085FF1BC080911C0170E050E040E0EF
:101CE000811104C050E040E068E070E0CE010E9445
:101CF000F8048091E8008E778093E80080E2FE018E
:101D0000A7E5B3E001900D928A95E1F7DF91CF91BD
:101D1000089568E081E0CDCF81E08093E00080E22B
:101D20008093D8001092C9008FE19EE40197F1F7EB
:101D300000C0000087E090EBDC0180938A03909361
:101D40008B03A0938C03B0938D0388E19CE00FB6C6
:101D5000F894A895809360000FBE90936000FFCF29
:101D60001F93CF93DF93182FD0E0C0E0893311F495
:101D7000C0E5D0E0812F0E94700A209731F4812FB6
:101D8000DF91CF911F910C949B098FE99FE0019700
:101D9000F1F700C000002197F0CF0F931F93CF936E
:101DA000DF93C62FD42F022FFC0182818823A1F05C
:101DB000609385030E944706909384038093830376
:101DC000C77081E001C0880FCA95EAF7DF91CF9113
:101DD0001F910F910C94660780918503681335C09D
:101DE00080918303909184030E943806883C91057A
:101DF00060F510E21D0FCD17B9F080E28C0F88302E
:101E000040F4C77081E001C0880FCA95EAF70E94CC
:101E10005B07183048F481E09D2F977001C0880F50
:101E20009A95EAF70E946607802F0E94B00E18303C
:101E300098F4D77081E001C0880FDA95EAF7DF9156
:101E4000CF911F910F910C945B07C77081E001C087
:101E5000880FCA95EAF7F3CFDF91CF911F910F91C9
:101E600008958091370380FD0AC0E6ECF1E011820D
:101E700010821282339652E0E230F507C1F76E9A73
:101E80003EB13F7B2EB120644FB7F89486EC91E0D1
:101E9000FC015191CF0168E02EB9000000C057FF4E
:101EA0003EB9550F000000C000C000C03EB900C0E0
:101EB0006A9591F7F2E082309F0751F74FBF8FE5A7
:101EC00094E00197F1F700C000000895EF92FF92AF
:101ED0001F93CF93DF93EC0186ECE82E81E0F82E80
:101EE00010E08C81970140913A0360913903810F92
:101EF0000E94BC07145F83E0E80EF11C103F89F7D5
:101F00000E94310F9A818C8190FF08C08F5F8C8373
:101F1000DF91CF911F91FF90EF9008958150F7CFFF
:101F2000BF92CF92DF92EF92FF920F931F93CF93C6
:101F3000DF93FC018281DD24DA9480FD02C0DD2480
:101F4000D39406EC11E0D0E0C0E024E1B22EF80119
:101F500011821082128294E0E92EF12CC12C809122
:101F6000C3018C0D85310CF43DC06B2D0E94B2274E
:101F7000892F082E000C990B8C179D0791F48091E6
:101F80003A038E9DA0018F9D500D112455954795C4
:101F900055954795980160913903809138030E94C7
:101FA000BC07CD0CF1E0EF1AF108C9F621960D5FE0
:101FB0001F4FC431D10559F60E94310F8091C301E2
:101FC00091E0D91215C0811111C083E18093C30142
:101FD000DF91CF911F910F91FF90EF90DF90CF9005
:101FE000BF90089587FFC5CF8C5EC3CF8150EECFE1
:101FF00090E00196BE010E94D427E8CF0F931F9373
:10200000CF93DF93C6ECD1E0FE01118210821282E1
:10201000339682E0E230F807C1F710E000E08091EB
:10202000C401082E000C990B081719078CF1809138
:102030001001082E000C990B801791074CF19E019E
:1020400040913A0360913903809138030E94BC07A4
:102050000F5F1F4F23960431110509F70E94310FBE
:1020600080910F019091C401980F9093C401209129
:102070001001280F20931001121614F493311CF054
:10208000819580930F01DF91CF911F910F9108955A
:10209000198218821A82DCCF8F929F92AF92BF92E0
:1020A000CF92DF92EF92FF920F931F93CF93DF9324
:1020B000EC014C81042F10E09801D8010E940929FD
:1020C0009B01AC010E94D4284B015C01E0E2F0E0EE
:1020D000E01BF10BA5E5B0E0AC019B010E94D42808
:1020E0006B017C019F01DF010E94F5279B01AC0180
:1020F0000E94DF289B01AC01280D391D4A1D5B1D84
:10210000C701B6010E94E728F22E822F90E039E243
:102110003F15D8F143E0249F900111243595279570
:10212000122F109596ECC92E91E0D92E00E085E58E
:10213000E82EEF188E2D01FD8F2D9601412F609115
:1021400039030E94BC070F5F53E0C50ED11C043158
:1021500089F70E94310F9C8181E0992319F0903218
:1021600019F48FEF8093110180911101890F8C83F5
:10217000DF91CF911F910F91FF90EF90DF90CF9063
:10218000BF90AF909F908F90089525E530E0A90112
:10219000481B590BCA019A01220F331F280F391F00
:1021A00037FFBCCF2F5F3F4FB9CFEF92FF920F9316
:1021B0001F93CF93DF938C01C6ECD1E0F12CE12C7F
:1021C000F80194816091390380913803FAE0EF16A9
:1021D000F104FCF49923F9F09E0140913A030E9426
:1021E000BC072FEFE21AF20A239684E1E816F10405
:1021F00039F70E94310FF801848190E001968170D7
:1022000099278483DF91CF911F910F91FF90EF90D9
:102210000895992309F39E0140E0E1CF909137039F
:1022200090FF0CC0E6ECF1E081836083428333963B
:1022300092E0E230F907C1F70C94310F08950F9343
:102240001F93CF93DF9300D00F92CDB7DEB78C01F1
:102250008091C50181110AC09E012F5F3F4F4FEF52
:102260006FEF0E94BC078A818093C501F8016481E9
:10227000613069F08091C50140E0662361F040E083
:10228000623011F44091C50180E060E004C06091CB
:10229000C50140E080E00E940E11F801848190E0C9
:1022A000019663E070E00E94D42784830F900F9022
:1022B0000F90DF91CF911F910F910895CF93DF93EE
:1022C00000D00F92CDB7DEB79091370390FF0AC0D0
:1022D0009E012F5F3F4F0E94BC074B8169818A811D
:1022E0000E940E110F900F900F90DF91CF910895E3
:1022F000CF93DF93EC01EC81F0E0E753FD4F449185
:10230000E7E3F3E0628181810E945E118C818F5F3F
:102310008C83DF91CF910895CF93DF93EC01E7E3B6
:10232000F3E0438162818C810E945E118C818F5F1A
:102330008C83DF91CF9108958F929F92AF92BF923D
:10234000CF92DF92EF92FF920F931F93CF93DF9381
:1023500089E7E82E81E0F82E03EF12E0E801A12CD6
:10236000B12CCC24C394D12CD7018D917D01F8944C
:10237000E82FE295EF70F0E021A18F70A60102C076
:10238000440F551F8A95E2F7CA01922F982B91A30B
:1023900092A18095892382A3789400C0E3E8F1E0BC
:1023A00030E020E0912C812C4191A42FA295AF70B8
:1023B000B0E090968C9190E04F7002C09595879513
:1023C0004A95E2F780FD4AC0C601022E02C0880F7E
:1023D000991F0A94E2F7882A992A2F5F3F4F2B30E2
:1023E000310511F7F701319780810E94E60A59E023
:1023F000A51619F080EA8A95F1F7888199818816E7
:10240000990679F19982888281E0B82AA39422966C
:10241000AAE0AA12A9CFBB2031F181E08093C201CA
:102420000E9447069093C1018093C0018091C00132
:102430009091C1010E9438060697C8F0ECE3F3E0E2
:1024400087E093E0D8012D913D918D012193319347
:102450008A179B07B9F71092C20109C090E080E08B
:10246000BACF80E0D2CF8091C2018111DFCF8B2D16
:10247000DF91CF911F910F91FF90EF90DF90CF9060
:10248000BF90AF909F908F9008954F925F926F9200
:102490007F928F929F92AF92BF92CF92DF92EF92F4
:1024A000FF920F931F93CF93DF93FC0162804480D0
:1024B00081E08483E9ECF2E07490E8E4F3E0E491F5
:1024C000C2E0D2E036ECE32E31E0F32E46E6C42E35
:1024D00042E0D42E52E0A52EBB24B39488248A94E3
:1024E000912C55245A94E7190E2F10E082E086159E
:1024F00030F08091380388838091390389834110BB
:1025000021C01B821A8297014A81698188810E94B9
:10251000BC07259683E0E80EF11CCC16DD0631F7EA
:10252000DF91CF911F910F91FF90EF90DF90CF90AF
:10253000BF90AF909F908F907F906F905F904F90E3
:102540000C94310F8B818823E9F081508B83859D1A
:10255000C00111246C8170E00E94C027FB01FF279D
:10256000E753FD4F8491E82FE719E59DC001112441
:10257000B8010E94C02780913A03689FB0011124DE
:102580007A83C1CF0E94502820913A032695215882
:102590002A9DA0012B9D500D1124452F55278417EE
:1025A00095070CF0B0CF82E0861588F40E94502881
:1025B000B4010E94D42788830E94502820913903B7
:1025C0002695622F70E00E94D427280F29831A8253
:1025D00080913A03893C20F088EC8C838B8393CFE5
:1025E0008431D8F784E1F9CF6BEE7EEF90E080E0A4
:1025F0000E949F2860E082E090E00E94812860E0D5
:1026000083E090E00E9481281092EF021092F00285
:102610001092F1021092F20260E084E090E00E94D9
:10262000812860E081E290E00E94812860E085E0FE
:1026300090E00E94812860E086E090E00E9481287E
:102640006FEF87E090E00E94812840E050E0BA01FF
:1026500088E090E00E94932860E08DE090E00E9486
:10266000812840E050E0BA0188E190E00E94932880
:1026700060E087E190E00E94812840E050E0BA01EC
:102680008CE190E00E94932860E080E290E00E945C
:10269000812840E050E0BA0188E190E00E94932850
:1026A00040E050E0BA018FE090E00E94932840E0C3
:1026B00050E0BA0183E190E00C949328CF92DF922E
:1026C000EF92FF926B017C010E94AD07B701A6015A
:1026D00088E090E0FF90EF90DF90CF900C949328EB
:1026E0005F926F927F928F929F92AF92BF92CF92A2
:1026F000DF92EF92FF920F931F93CF93DF9300D05F
:102700000F92CDB7DEB7182F762E042F622E909140
:10271000370390FF29C0E92FE695AE2FB0E0A35E06
:10272000BE4F8C91809335039E7F923081F59E0140
:102730002F5F3F4F812F0E94BC074B8169818A81A7
:102740000E940E11109338037092390300933A03DC
:10275000662051F0609137037091380380913903FE
:1027600090913A030E945E130F900F900F90DF91AB
:10277000CF911F910F91FF90EF90DF90CF90BF907E
:10278000AF909F908F907F906F905F900895823070
:1027900019F400913A03D6CF863019F4109138031A
:1027A000D1CF8930D9F3893169F6E9518E2F817003
:1027B000582EE695F0E0EC53FD4FA590B490BB2465
:1027C00086ECE82E81E0F82ED12CC12C94E1892EE4
:1027D000912CC601B4010E94C027812F511013C053
:1027E000860F9701402F672D0E94BC07CA0CDB1C87
:1027F00083E0E80EF11C82E0E81682E0F80649F773
:102800000E94310F9FCF861BECCFE7E3F3E04381BB
:1028100028E0421B08F440E021E0628181810C94B1
:102820007013E7E3F3E0438128E0420F08F44FEF31
:1028300021E0628181810C947013E7E3F3E062810F
:1028400028E0621B08F460E021E0438181810C9460
:102850007013E7E3F3E0628128E0620F08F46FEFA2
:1028600021E0438181810C947013E7E3F3E08181DF
:1028700021E04381628188500C947013E7E3F3E018
:10288000818121E043816281885F0C947013809183
:102890003B03882319F0815080933B0360913703F9
:1028A000709138038091390390913A030C945E1330
:1028B00080913B03833018F48F5F80933B036091DA
:1028C0003703709138038091390390913A030C9447
:1028D0005E13E7E3F3E083E0808311828FEF82836E
:1028E0008383148260817181828193810C945E1351
:1028F0001092ED0280911C01E2EAF1E0882359F088
:102900008091070387FF07C08EE1DF011D928A9542
:10291000E9F70C94790886E0F8CF1F93CF93DF9303
:10292000CDB7DEB7AA970FB6F894DEBF0FBECDBF06
:102930008BE793E02091F100DC012D93CD01B3E012
:1029400083389B07B9F780917C03833009F471C009
:10295000B8F4813009F448C0823009F4B2C08091E3
:10296000E80083FF3AC180917B0390917C039A3009
:1029700008F033C1E92FF0E0E85DF64D0C94E8274C
:102980008A3009F48DC08B3009F470C0893039F772
:1029900080917B03813219F780917F0390918003AE
:1029A000009711F00297D9F68091E800877F809315
:1029B000E8008091E80082FF37C09091F300809199
:1029C000F200029729F48091F1008B7F813021F48D
:1029D0008091F100809356038091E8008B7780937B
:1029E000E8000E942205BBCF80917B03813A09F069
:1029F000B6CF8091E800877F8093E80080917F03C5
:102A000090918003892B61F460E287E593E070E0A8
:102A10000E94D4058091E8008B778093E8009FCFD7
:102A200060E090E080E0F3CF809179038111C1CF25
:102A300096CF80917B03813A09F091CF80917F03FB
:102A400090918003892B09F08ACF8091E800877FDD
:102A50008093E8008091E80080FFFCCF80911C010A
:102A60008093F1008091E8008E77B9CF80917B034D
:102A7000813209F074CF80917F0390918003892B7C
:102A800009F06DCF8091E800877F8093E8000E9475
:102A9000220580917D0380931C010E9478145FCFF2
:102AA00080917B03813209F05ACF8091E800877FC3
:102AB0008093E8000E94220580917E038093550355
:102AC0004ECF80917B03813A09F049CF8091E80095
:102AD000877F8093E8008091E80080FFFCCF8091A1
:102AE0005503BECF803899F0823809F076C08091C6
:102AF0007F038F70873008F070C08093E900809169
:102B0000EB0085FB882780F91092E90006C08091D0
:102B1000770390917803911182609091E800977FFC
:102B20009093E8008093F1001092F1008091E8000A
:102B30008E77B5C1882309F4A2C1823009F04DC057
:102B400080917D038111A6C180917F038F702FEF4B
:102B5000280F263008F041C08093E9002091EB0057
:102B600020FF98C1933031F48091EB008062809314
:102B7000EB0090C19091EB0090619093EB0021E00D
:102B800030E001C0220F8A95EAF72093EA00109204
:102B9000EA008091EB008860EACF81111EC010919D
:102BA0007D031F778091E3008078812B8093E30081
:102BB0008091E800877F8093E8000E942205809141
:102BC000E80080FFFCCF8091E30080688093E30001
:102BD00082E0111183E0809379038091E80083FF04
:102BE0000AC08091E800877F8093E8008091EB0025
:102BF00080628093EB00AA960FB6F894DEBF0FBEFA
:102C0000CDBFDF91CF911F9108958058823028F772
:102C100020917D0330917E032C3DE3E03E07A1F53A
:102C200083E08A838AE289834FB7F894DE011396A2
:102C300020E03EE051E2E32FF0E050935700E491B2
:102C400020FF03C0E295EF703F5FEF708E2F90E0A2
:102C5000EA30C0F0C7968D939D932F5F243159F7CA
:102C60004FBF8091E800877F8093E8006AE270E0C0
:102C7000CE0101960E94D4058091E8008B77809365
:102C8000E800ABCFC096E7CF80917F03909180039F
:102C9000432F55274330510509F44AC078F5413098
:102CA000510509F47AC08BE590E0EEEFF7E0423091
:102CB000510509F092CF2091E800277F2093E8008A
:102CC00020918103309182038217930708F49C01BD
:102CD00040E02115310509F065C0411163C08091C4
:102CE000E80082FDC9CF80917903882329F28530DD
:102CF00019F28091E80083FFF2CFBECF4132510537
:102D000009F43CC04232510509F067CF8330910588
:102D100008F063CFFC01EE0FFF1FEF56FE4F01904E
:102D2000F081E02D82579E4FDC018C9190E01AC01B
:102D3000332721303105D1F02115310561F02230E2
:102D4000310509F04ACFEBE6F8E0E4918E2F90E0F0
:102D5000EBE6F8E007C0E9EBF8E0E4918E2F90E0B5
:102D6000E9EBF8E0009709F438CFA5CFE9E9F8E0FE
:102D7000E4918E2F90E0E9E9F8E0F4CF83309105FB
:102D800008F02BCF880F991FFC01E956FE4F0190E8
:102D9000F081E02D89E090E08ECF82E190E0E9E5DE
:102DA000F8E089CF80917903882309F465CF8530D5
:102DB00009F462CF8091E80083FD5ECF8091E80046
:102DC00082FD8DCF8091E80080FF83CF9091F3004A
:102DD0008091F2002115310519F08830910550F0ED
:102DE00041E0089709F040E08091E8008E778093F9
:102DF000E8006FCF44914093F100319621503109A2
:102E00000196E8CF803809F0E8CE8091E800877F0E
:102E10008093E80080917A038093F10087CE81113E
:102E2000DCCE10917D03123008F0D7CE8091E800FF
:102E3000877F8093E80010937A030E942205112374
:102E400011F084E005C08091E30087FDFACF81E0B6
:102E50008093790342E061EC81E00E94410542E207
:102E600061EC84E00E94410542E261EC82E00E9454
:102E7000410542E260EC83E00E944105AECE8091C4
:102E80007D03813009F0A9CE81E0933009F080E024
:102E9000809378031092E9008091E800877F809307
:102EA000E8000E94220599CE9091370390FF3DC023
:102EB0009170811129C0926090933703662351F07D
:102EC00060913703709138038091390390913A03F0
:102ED0000E945E1360913703669570E04BE050E00E
:102EE00084E091E00E946028892BA9F010923603BB
:102EF00081E08093100320E040913A036091390310
:102F0000809138030C9470138B3210F09465D4CFF9
:102F1000880F982BD1CF81E0809336030E9447061B
:102F200090930E0380930D03E3CF089580913703B0
:102F30008695815009F48AE261E00C9454178091DF
:102F4000370386958F5F8B3208F081E061E00C9447
:102F500054179091370390FF07C09695981720F06B
:102F6000961710F40C949F1761E00C9454173F923D
:102F70004F925F926F927F928F929F92AF92BF9289
:102F8000CF92DF92EF92FF920F931F93CF93DF9335
:102F900000D000D00F92CDB7DEB78C01FC01838149
:102FA0009481892B31F08081918189238F3F09F0B1
:102FB0003DC60F900F900F900F900F90DF91CF9123
:102FC0001F910F91FF90EF90DF90CF90BF90AF9047
:102FD0009F908F907F906F905F904F903F9008955B
:102FE0000E941B0DF82E682F89819A810E94250767
:102FF00069817A818F2D0E94840B7C01F801928176
:10300000992309F406C6970122513F452031310525
:1030100008F0D2C58FEF93E00E946D28FEEEEF0E10
:1030200056E9852E53E0952E882381F18091EA029E
:10303000877009F4BECFF8018281882309F4B9CFE3
:1030400082E00F900F900F900F900F90DF91CF9133
:103050001F910F91FF90EF90DF90CF90BF90AF90B6
:103060009F908F907F906F905F904F903F900C94C7
:10307000DF08811424E09206C9F2C4010E946D2881
:10308000811101C0EA943FEF831A930AE110F1CF56
:103090001C821B82442443944AE0342E74018FEF37
:1030A000E81AF80AC4010E946D2889831A828823CD
:1030B00009F4BCCF9FEF980F933000F58A834982C3
:1030C00092E0890E911CC7010E946D288B83882392
:1030D00009F4ACCFFE0131967F01F7012081222354
:1030E000E9F2213009F049C091818281913041F4A7
:1030F000F2E0EF0EF11C0E94B00E09C04701EACFCA
:10310000923049F422E0E20EF11C0E94700A3FEF77
:10311000E31AF30AE2CF933031F432E0E30EF11C0C
:103120000E949B09F4CF943021F08FEFE81AF80A3F
:10313000EECF92E0E90EF11C30E020E0B7016F5FC6
:103140007F4FF70141818053990B8A30910550F0F0
:1031500021503109E0F28FE99FE00197F1F700C0BB
:103160000000F6CF329EF001339EF00D11249C0139
:103170002E0F3F1F842F7B01E1CFE22FF0E0E759B4
:10318000F84F5490822F86958695869590E0FC01A5
:10319000E75AF84F64902770712C022E02C0759484
:1031A00067940A94E2F7E1E06E227724FC01E75B82
:1031B000F84FA490B12C022E02C0B594A7940A94A3
:1031C000E2F7F1E0AF22BB24FC01E75CF84FC490CA
:1031D000D12C02C0D594C7942A95E2F721E0C222EF
:1031E000DD246114710419F081EE0E94700AA114AB
:1031F000B10419F086EE0E94700A852D0E94B00E6F
:10320000AB2819F086EE0E949B09672819F081EE21
:103210000E949B09CD2809F47ACF8CE26CCF81E023
:103220000E94F7080E94A00801CF81E00E94BC081C
:10323000F9CF82E0F5CF85EFE8168CE5F80609F4C2
:103240006AC008F464C027E245EE66EEF6EFEF16BA
:10325000FCE5FF0609F4D9C4992309F4F8C41092D7
:10326000850322E0E2162CE5F20608F44DC136E1B2
:10327000E3163CE5F30638F097012A5F3C45293018
:10328000310508F041C10E94500B909308038093D0
:10329000070380E1E8168CE5F80609F404C108F09C
:1032A00083C0E8E0EE16ECE5FE0609F4EEC008F097
:1032B0004FC024E0E2162CE5F20609F4DEC090F5DA
:1032C00082E0E8168CE5F80609F4D1C08091070386
:1032D000826093E0E9169CE5F90609F4CBC06091A1
:1032E0000703F090080384E090E00E9481286F2D8E
:1032F00081E290E00E9481280E94781497CE27E214
:1033000045EE65EE82C426E241EE60EE7EC427E221
:1033100045EE64EE7AC426E241EE62EE76C428E21F
:1033200041E0EFCF809107038061E6E0EE16ECE527
:10333000FE0609F49FC0809107038860F7E0EF164E
:10334000FCE5FF0608F496C080910703806292C0F6
:10335000809107038D7F2CE0E2162CE5F20609F43C
:1033600089C060F48AE0E8168CE5F80609F497C095
:1033700008F48FC0809107038E7F7CC08091070383
:10338000877FEEE0EE16ECE5FE0609F473C080914F
:1033900007038B7FFFE0EF16FCE5FF0608F46AC029
:1033A000809107038F7E66C02BEFE2162CE5F206B4
:1033B00009F467C068F583E1E8168CE5F80609F4BE
:1033C0007AC090F4E1E1EE16ECE5FE0609F46FC078
:1033D000F2E1EF16FCE5FF0609F081CF0E947814B8
:1033E000809107038F7746C025E1E2162CE5F206AF
:1033F00009F469C008F47DC08AEFE8168CE5F80688
:1034000009F06DCF8091080381608093080367CF36
:103410009FEFE9169CE5F90609F451C0A0F48091EC
:1034200008038D7FFDEFEF16FCE5FF0671F3809139
:1034300008038E7F2EEFE2162CE5F20630F3809122
:1034400008038360E2CF31E0E3163DE5F30609F4BB
:1034500059C008F444C060E092E0E9169DE5F90621
:1034600009F03DCF8EE090E00E94812838CF809116
:10347000070381608093070332CF80910703846044
:10348000F9CF809108038260C0CF809107038064E8
:10349000F1CF0E947814809107038068EBCF809170
:1034A00007038C60E7CF809107038F7DE3CF809186
:1034B00007038F7BDFCF80910703837FDBCF809172
:1034C00008038C7FA2CF8091070382FB992790F994
:1034D00021E0922790FB82F990FB83F9CBCF80917A
:1034E0000803982F909591708E7F892B90FB81F91E
:1034F0008CCF0E94781490910703892F97FB87F94E
:103500008058B8CF61E0AECF8091ED02E6E1EE16D3
:10351000ECE5FE0609F0ABC38A7A91E009F490E08D
:1035200090936A0269E2811165E380EA91E00E946A
:103530007D060E94B8067ACD8091370380FF1BC0BC
:103540008E7F8093370360913703709138038091A9
:10355000390390913A030E945E1310923603FFEFF5
:1035600020E732E0F15020403040E1F700C0000099
:103570000E94310F5BCD81608093370361E08695B7
:103580000E94541753CD46E957E16FE977E10E9455
:10359000A8074CCD4FE957E166E977E1F8CF45E35D
:1035A00054E16EE374E1F3CF4EE354E165E374E17B
:1035B000EECF4DE154E169E274E1E9CF49E254E133
:1035C0006DE174E1E4CF45E054E161E174E1DFCF06
:1035D00041E154E165E074E1DACF47E454E168E5A4
:1035E00074E1D5CF48E554E167E474E1D0CF61E000
:1035F00081E0C6CF65E082E00E94A91717CD68E0A0
:1036000086E0FACF6EE089E0F7CF64E18FE0F4CF97
:1036100067E185E1F1CF61E088E1B2CF62E289E163
:10362000EBCF61E083E2ACCFE1148CE5F80609F45E
:1036300047C0EEEDEE16ECE5FE0609F44EC0F801CB
:10364000E080F180992309F44BC0C7010E941B0D53
:10365000D82E682FC7010E942507B7018D2D0E9423
:10366000910B7C01882EF801D280A580A2943FE0C6
:10367000A3228091EA028770A1F0CD2CDD2091F089
:103680008F2D807F803421F080E28E0D883048F0CD
:1036900082E00E94DF088091EA028770CC24C39404
:1036A0008111C12C3F2C32942FE03222FBE0F31524
:1036B00008F452C0E32DF0E0EE5CF64D0C94E827E0
:1036C0000E947814FFEF24E33CE0F15020403040AA
:1036D000E1F700C000000E948C0E0E94F412A6CCFC
:1036E000C7010E94FD06D82EB8CF2F2D2F70A22E15
:1036F0008F2D807F19F0A29490EFA922DD20C9F0D0
:10370000AA2069F080E28E0D883010F081100BC085
:103710008091ED02A82AA092ED020E94B8068E2D9B
:103720000E94700A19C08091EC02A82AA092EC02B3
:10373000F4CF8E2D0E949B09AA2071F0A09480E204
:103740008E0D883010F081103FC08091ED02A822CC
:10375000A092ED020E94B806232D2850330B24308E
:10376000310520F40E949C070E94400BCC2009F4F4
:1037700020CC8091EA0280FD1CCCF8011282859554
:10378000859585950E94F708C8010E94B71780911A
:10379000EA028595859585950F900F900F900F9073
:1037A0000F90DF91CF911F910F91FF90EF90DF90DD
:1037B000CF90BF90AF909F908F907F906F905F90D1
:1037C0004F903F900C94BC088091EC02A822A092EC
:1037D000EC02C0CF3F2D3F70932E8F2D807F803223
:1037E00019F0929480EF9822882071F081E0881679
:1037F00061F1DD20B9F1AA2071F1F801858180FF26
:103800008ECF8F70858327C0DD2091F09091EE02DE
:10381000892D892BA11003C00E9466079DCFE1E08E
:10382000AE12FACF981709F497CF8093EE0294CF97
:10383000A11006C00E94B206892D0E945B078CCFA2
:10384000F1E0AF1609F488CFF5CFDD2031F025E0A7
:103850002A1508F481CF892DDFCF34E03A1508F41A
:103860007BCFEACFAA2041F3F9E38F1209C02FEFF3
:1038700037EE83E0215030408040E1F700C0000087
:103880008E2D0E949B0968CF8F2D8695869583701B
:1038900061F0813009F060CFC7019370D11002C090
:1038A00090E080E00E94700757CFC7019370D1105D
:1038B00002C090E080E00E9486074ECF8E2DDD2072
:1038C00029F00E94160A0E94520846CF0E9422093F
:1038D000FACF8F2D837009F066C0D1103DCF8E2DA9
:1038E000829586958770880F880F6E2D6F70462E93
:1038F000512C712C612C082E04C0440C551C661CE4
:10390000771C0A94D2F740E050E0BA01E4FE0FC001
:103910004FE050E060E070E004C0440F551F661FA8
:10392000771F8A95D2F740955095609570958F2DA9
:10393000869586958370823019F1D8F48090EF02D5
:103940009090F002A090F102B090F202813069F004
:103950004429552966297729CB01BA0168217921A3
:103960008A219B210E941809F7CE482859286A28E5
:103970007B28CB01BA016429752986299729F2CFC2
:1039800044295529662977294090EF025090F0028A
:103990006090F1027090F202CB01BA0164257525A6
:1039A00086259725DFCF8695DD2011F08F2D81703C
:1039B000882309F4D1CE8E2D829586958770880F45
:1039C000880F6E2D6F70462E512C712C612C082E95
:1039D00004C0440C551C661C771C0A94D2F740E0C6
:1039E00050E0BA01E4FE0FC04FE050E060E070E04C
:1039F00004C0440F551F661F771F8A95D2F7409564
:103A00005095609570958F2D869586958370823040
:103A100019F1D8F48090860390908703A0908803D2
:103A2000B0908903813069F04429552966297729A6
:103A3000CB01BA01682179218A219B210E94960835
:103A40008BCE482859286A287B28CB01BA016429E3
:103A5000752986299729F2CF44295529662977297E
:103A6000409086035090870360908803709089038C
:103A7000CB01BA016425752586259725DFCF9F2DBB
:103A80009F70F92EDD2029F0892F0E94F7088E2DD6
:103A9000C3CE8E2D0E945B078F2D0E94BC085CCE8A
:103AA0008E2DE2EF8E1609F453C0E81578F0F0EF92
:103AB0008F1629F121EF821609F442C0DD2009F4A6
:103AC0006BC0A1102CCE8F2D8F713FC033EF8316AA
:103AD00009F443C094EF8912F1CFDD2009F451C0FD
:103AE0002F2D2F71F22E822F0E94F70838E0F39EBF
:103AF000C001112483608093EA028F2D26C0DD204F
:103B0000D1F0E4E0EA1508F427CE2F2D2F7161E003
:103B100070E080E090E004C0660F771F881F991F57
:103B20002A95D2F7409086035090870360908803CF
:103B3000709089039FCFF5E0FA1508F40DCEE5CF1C
:103B40008F2D8F71DD2009F4A8CF0E94F70804CED5
:103B50008F2D8F71DD20C9F3A0CF60E070E0CB0125
:103B6000DD2009F46BCF2F2D2F7161E070E080E034
:103B700090E004C0660F771F881F991F2A95D2F71F
:103B80005DCF81E00E94DF0881E08A1508F0E4CD76
:103B900082E00E94DF08E0CDAA2059F0893309F0C5
:103BA0006FCE9FEFE7EEF3E09150E040F040E1F799
:103BB00065CE8F2D8F7171CFF0E1EF16FFE5FF0617
:103BC00009F42DCB21E1E2162FE5F20609F431CB01
:103BD00083EFE8168CE5F80609F495CB08F02BCBBB
:103BE000F8EDEF16FCE5FF0609F489CB29EDE216A6
:103BF0002CE5F20609F493CB37EDE3163CE5F3062A
:103C000009F02ACB26E241EE61EEC8010E94CD0EFA
:103C10000DCA30E1E3163FE5F30609F406CB81E176
:103C2000E8168FE5F806A1F682E000CB85E0DE011C
:103C3000119601900D928A95E1F7F8012281898110
:103C40009A812111CDC90E94FD06F82ED1C9F6E155
:103C5000EF16FCE5FF0609F0F2CC80916A0269E2FA
:103C6000811165E380EA91E00E94530662CC827282
:103C7000F701E25CFC45E431F10508F0D5CCE25CEB
:103C8000F64D0C94E8271F93CF93DF938091710238
:103C9000807FA9F480916E02882389F08091A3022D
:103CA000D091720260916C0270916D02A0916F02CE
:103CB000B0917002C62FC72316E0D81304C0DF915D
:103CC000CF911F91089590E0109711F0CF3F19F414
:103CD00001968770F2CF189F9001199F300D112423
:103CE000F901ED58FD4F41814713F2CF4081461352
:103CF000EFCF42814111ECCF438154814A1B5B0BD2
:103D0000483C510528F7809171028F708061809343
:103D10007102F901E858FD4F80818F7080618083C6
:103D20008CE692E00E94B717DF91CF911F910C941F
:103D30005107AF92BF92CF92DF92EF92FF920F9313
:103D40001F93CF93DF93CDB7DEB761970FB6F8948B
:103D5000DEBF0FBECDBF8C0185E0F801DE011D96F0
:103D600001900D928A95E1F7F80180819181E280BE
:103D70002CE6A22E22E0B22E60916F0270917002AA
:103D80006115710509F43EC130916C0240916D02DC
:103D9000232F24232F3F09F435C1C380D480F09012
:103DA0006E02F601E61BF70BFF2009F4FBC0209121
:103DB0007102522F507FE83CF10508F0BBC0511151
:103DC00078C0FE2C491321C038131FC0E1101DC05C
:103DD0002F70206120937102C5010E94B717809156
:103DE0007102F80185838F2D61960FB6F894DEBFBE
:103DF0000FBECDBFDF91CF911F910F91FF90EF903C
:103E0000DF90CF90BF90AF900895CD2829F0282F54
:103E100029232F3F09F014C120E0F22FF170DF2E8B
:103E200020FF3DC02091A3024091720256E024136E
:103E300015C08D879E878D859E850E945D0D292FDB
:103E400022952F702230F8F0243020F59F70F9F081
:103E5000F8019581907FD9F4D12C1FC030E0529F9A
:103E6000F001539FF00D1124ED58FD4F6181961321
:103E700006C06081861303C06281E61210C02F5F06
:103E80003F4F2770D4CF9F7011F0882329F3805EB5
:103E9000883010F3C8010E94B717FD2CA4CFEE2084
:103EA00009F4A1CF80917102816080937102F12C9D
:103EB0009ACF491312C0381310C0E1100EC0F80198
:103EC0002583C8010E94B71786E0F801ACE6B2E08E
:103ED00001900D928A95E1F786CF8D879E878D851B
:103EE0009E850E94670D882309F1EE20F9F08091EC
:103EF0007102803270F020916C0230916D0238872F
:103F00002F831986DB86CA868C87CE0107960E948E
:103F1000B71786E0F801ACE6B2E001900D928A9501
:103F2000E1F70E94431EFF24F3945DCFC8010E9475
:103F3000B717F9CF51110AC08CE692E00E94B7176B
:103F400086E0F50111928A95E9F7B1CF49130FC0C8
:103F500038130DC0E1100BC0F8012583C8010E9481
:103F6000B71786E0F50111928A95E9F73CCF8D8766
:103F70009E878D859E850E94670D8823B9F2EE206D
:103F8000A9F280917102803220F220916C0230916E
:103F90006D023A8329831B82DD82CC828E83CE011F
:103FA0000196B5CFE83CF105E0F6FE2CEE2009F4D1
:103FB000BDCF491316C0381314C08091710280FD23
:103FC00083CF982F907F09F47FCFF8018583903FAE
:103FD00009F477CF982F907F905F8F70892B85831E
:103FE00070CF8D879E878D859E850E94670D81117C
:103FF00090CF80917102816080937102C8010E940C
:10400000B717F1CEEE2009F491CF8D879E878D856D
:104010009E850E94670DF82E882309F487CF86E0DD
:10402000F801ACE6B2E001900D928A95E1F780913B
:104030006C0290916D020E945D0D0E94431ED3CED2
:1040400021E02E25EACE1F93CF93DF93CDB7DEB7C5
:1040500067970FB6F894DEBF0FBECDBF342F4B8BE2
:10406000252F5C8B6D8B7E8B8F8B8E899F89611149
:104070001092EC021A8A198A3D872E876F87998BD6
:10408000888B86E0FE013D96DE01179601900D9229
:104090008A95E1F7CE0107960E94991E882389F040
:1040A00016E08091A30290917202891349C067962D
:1040B0000FB6F894DEBF0FBECDBFDF91CF911F9139
:1040C000089586E0FE013796DE01119601900D926B
:1040D0008A95E1F78A859B85892B11F38F819885D5
:1040E00089238F3FE9F22091720230E0C9010196E5
:1040F000877099274091A3024817190671F40E940E
:104100007814109272021092A30286E0ECE6F2E0BC
:10411000DF011D928A95E9F7C3CF96E0929FD00107
:10412000939FB00D1124AD58BD4FFE013196019003
:104130000D929A95E1F7809372020E945107B0CFD9
:10414000819FC00111248D589D4F0E94991E882384
:1041500009F4ADCF8091A30290E001968770992772
:104160008093A3029ECF1F920F920FB60F9211243D
:104170002F933F934F935F936F937F938F939F936F
:10418000AF93BF93CF93DF93EF93FF93D091E90069
:10419000DF708091EC00C82FC17080FDC0E81092E4
:1041A000E9008091F000877F8093F00078940E946E
:1041B0008D141092E9008091F00088608093F000E7
:1041C000CD2BCF70C093E900FF91EF91DF91CF919C
:1041D000BF91AF919F918F917F916F915F914F911F
:1041E0003F912F910F900FBE0F901F9018951F9227
:1041F0000F920FB60F9211242F933F934F935F931B
:104200006F937F938F939F93AF93BF93EF93FF939E
:104210008091E10082FF09C08091E20082FF05C029
:104220008091E1008B7F8093E1008091DA0080FF34
:1042300024C08091D80080FF20C08091DA008E7F5A
:104240008093DA008091D90080FF9BC080E189BD16
:1042500082E189BD09B400FEFDCF81E0809379033E
:1042600080915403811109C00E94A8040E94730523
:104270008091E20084608093E2008091E10080FF01
:1042800017C08091E20080FF13C08091E2008E7F12
:104290008093E2008091E20080618093E20080914F
:1042A000D80080628093D80019BC85E080937903A0
:1042B0008091E10084FF29C08091E20084FF25C045
:1042C00080E189BD82E189BD89B5982F917080FF19
:1042D000FBCF8091D8008F7D8093D8008091E10042
:1042E0008F7E8093E1008091E2008F7E8093E200D8
:1042F0008091E20081608093E20080917A038823BC
:1043000009F445C084E0809379038091E10083FF44
:1043100027C08091E20083FF23C08091E100877F66
:104320008093E10082E08093790310927A03809178
:10433000E1008E7F8093E1008091E2008E7F809388
:10434000E2008091E20080618093E20042E060E060
:1043500080E00E9441058091F00088608093F00029
:10436000FF91EF91BF91AF919F918F917F916F914D
:104370005F914F913F912F910F900FBE0F901F9023
:10438000189519BC109279031092540376CF80913E
:10439000E30087FD93E090937903B7CFCDB7DEB705
:1043A000AA970FB6F894DEBF0FBECDBF84B7877F44
:1043B00084BF0FB6F894A8958091600088618093BF
:1043C0006000109260000FBE80E890E00FB6F89495
:1043D00080936100909361000FBE85B7806885BFB0
:1043E00085B7806885BF83E396E090939F018093B3
:1043F0009E010E94A8040E9473058091E2008460DF
:104400008093E2007894809179038823A1F0109141
:10441000E9001F709091EC00892F817090FD80E879
:10442000182B1092E9008091E80083FD0E948D1402
:104430001F701093E90082E084BD93E095BD9AEF70
:1044400097BD80936E0009E711E0F3E8EF2EF1E0ED
:10445000FF2EF80181918F010E94E60AE016F10615
:10446000C1F703E811E0EEE8EE2EE1E0FE2EF801E0
:1044700081918F010E94E60AE016F106C1F7E3EF91
:10448000F2E087E093E0ACE3B3E0119211921D9269
:104490001D928E179F07C9F70E949C118FE39CE91C
:1044A0000197F1F700C000000E949C1180913C032D
:1044B00080FF17C06FEF82E290E00E9481286FEFCB
:1044C00083E290E00E9481286FEF84E290E00E94F6
:1044D00081286FEF7FEF90E080E00E949F280E948C
:1044E0008C0E90E080E00E947B288B3E9E4F11F066
:1044F0000E94F412869A8E98859A8D98879A8F9842
:1045000082E290E00E946D28813209F0A8C483E223
:1045100090E00E946D28843009F0A1C484E290E00C
:104520000E946D28833209F09AC490E080E00E94D6
:104530007B288B3E9E4F11F00E94F41282E090E0A7
:104540000E946D28809320030E94500B90930803D3
:104550008093070383E090E00E946D28682F70E04D
:1045600090E080E00E94180980910903811136C013
:1045700090E080E00E947B288B3E9E4F21F00E94BD
:10458000F4120E94691488E090E00E9475286093FC
:104590003703709338038093390390933A036E7F07
:1045A00071F40E94691488E090E00E94752860937D
:1045B0003703709338038093390390933A030E9432
:1045C000AD07109236038091370380FF04C060E08E
:1045D00086950E94541781E08093090382E191E05F
:1045E00090930B0380930A0358E1E52EF12C60E4CD
:1045F000B62E70E5C72E73E0D72E8091790300E1C7
:1046000012E1853009F4BEC10E949C11882359F043
:104610008FB7F89440915003509151036091520329
:10462000709153038FBFE1E2F3E0ACE3B3E010E03D
:1046300000E0702F8D919D912191319128173907BC
:1046400009F4B2C12827392760E088248394912C8B
:10465000A90148215921452B09F4A0C169A37AA3D6
:104660009C012821392191E0232B09F490E09BA3A0
:104670000E9447068160782F9DA38CA349A15AA16F
:104680006BA18DA10E942320000F111FF801EF5D87
:10469000FC4F808191818826992691828082809129
:1046A00036038823D1F180913503E0913703E695F5
:1046B000E81BE0930F03823009F08DC1F0E0E65073
:1046C000F84FE4910E2F10E088E7882E81E1982EB4
:1046D00080911003882361F0109210030E94470616
:1046E00090930E0380930D03109212031092110306
:1046F0000E944706E0910D03F0910E038E1B9F0B65
:104700008F3F9F4750F4E00FF11FF0930E03E093AB
:104710000D038DE093E0F401099586E0E9E1F3E013
:10472000DE01119601900D928A95E1F790901B039E
:1047300080901C0310911D0300911E0310921B0317
:1047400010921C0310921D0310921E03892D8829BC
:1047500009F448C080911703909118030E9438060D
:104760009C0190911603992309F4A0C323333105CA
:10477000C8F19F3F19F09F5F90931603992059F05D
:104780000E94F6099FEF19140CF491E0899F802D87
:10479000112480931B03882059F00E94F6099FEF93
:1047A00018140CF491E0899F802D112480931C0330
:1047B00030911B033323B1F020911C03222391F08D
:1047C00045EB3403C0011124992309F470C190937F
:1047D0001B0345EB240390011124332309F46BC11F
:1047E00030931C03812F802B09F448C0809114035F
:1047F000909115030E9438069C0190911303992310
:1048000009F44FC325363105C8F19F3F19F09F5F6A
:1048100090931303112359F00E94D4099FEF1116AE
:104820000CF491E0899F802D112480931D030023B7
:1048300059F00E94D4099FEF10160CF491E0899F63
:10484000802D112480931E0330911D033323B1F07A
:1048500020911E03222391F045EB3403C001112463
:10486000992309F42CC190931D0345EB2403900177
:104870001124332309F427C130931E0380911B03B5
:1048800090911C03892B90911D03892B90911E03FD
:10489000892B11F00E94520886E0FE013196A9E1B1
:1048A000B3E001900D928A95E1F70E949C079091E8
:1048B0001F03891731F00E949C0780931F030E94F9
:1048C000400B80917903843009F097CE83E0809388
:1048D000E9008091E80082FF90CE8091E80090E0AE
:1048E00085FF06C00E94C704882309F4F0C091E048
:1048F0008091E8008B778093E800992309F47DCEBE
:10490000E981E150E33108F064C1F0E0EE5AF64D80
:104910000C94E82780917903843021F180E00E9493
:10492000400B10920C030FB6F894A895E09260002B
:104930000FBEB092600083B7817F846083BF83B76E
:10494000816083BF7894889583B78E7F83BF0FB6CD
:10495000F894A8958091600088618093600010921F
:1049600060000FBE80917803882361F00E949C1143
:10497000ECE3F3E081919191892B09F05AC2CE16B4
:10498000DF06C1F780917903853009F4C3CF0E9417
:1049900078140E949C070E94400B36CE6F5F880CF3
:1049A000991C6B3009F054CE0F5F1F4F0A30110570
:1049B00009F03FCE8FEF8EA38FA318A60E94470663
:1049C0008160782F9AA789A74EA15FA168A58AA5C3
:1049D0000E94232064CE863059F4F0E0E950F84F6D
:1049E000E4910E2F10E0BCE88B2EB1E19B2E70CE2F
:1049F000893061F4E695F0E0EC50F84FE4910E2F29
:104A000010E0A6E68A2EAFE09A2E62CE8F3061F4D7
:104A1000E695F0E0EF50F84FE4910E2F10E0F0E94A
:104A20008F2EFFE09F2E54CE853159F4F0E0E251F5
:104A3000F84FE4910E2F10E0EEEF8E2EEFE09E2E59
:104A400047CE08E210E05CE4852E50E1952E8831D7
:104A500009F43ECE833249F4ECEEF7E0059114916F
:104A60007FE1872E71E1972E33CE04EF11E045ED03
:104A7000842E40E1942E843209F42ACE00ED17E012
:104A800032E3832E36E0932E853209F021CE8E2F2D
:104A900063E00E94A627E92FF0E0E751F84FE49188
:104AA0000E2F10E065E4862E62E1962E11CE81E095
:104AB00080931B038ECE81E080931C0393CE81E014
:104AC00080931D03D2CE81E080931E03D7CE00E2F7
:104AD00010E0CE0101964C018091E80085FD0AC0EE
:104AE0008091E8008B778093E8000E94C7048823B8
:104AF00099F3FDCE8091F100F40181934F010150B3
:104B0000110951F7F4CE1A8289E08B831AC08A8189
:104B1000823009F4BDC18330D9F1813009F059C028
:104B20002FB7F89460915003709151038091520314
:104B3000909153032FBF0E94EE276B837C838D835C
:104B40009E8380917903843009F057CD1091E9005C
:104B50001F709091EC00892F817090FD80E8182BD8
:104B600082E08093E9008091E80080FF0DC050E072
:104B700040E060E270E0CE0101960E94F80480916E
:104B8000E8008E778093E8001F701093E90035CD20
:104B9000DE011196ECE3F3E080819181329612966A
:104BA0009C93129713968C931397129623E0E035FB
:104BB000F20791F7C6CF8A81823059F46B817C81EC
:104BC0008D819E810E94EE2785E290E00E948128DF
:104BD000B8CF8FEF8983B5CF4C816B818A810E94DA
:104BE0005E0B9827892798279E838D83AACF8D8077
:104BF0009E809824892498248A810B8146E1049F11
:104C0000800111249CED899F000D111D11248C81C0
:104C100090E0880F991F080F191F692DC80186960B
:104C20000E948128682DC8018796D0CF0E948B0DE5
:104C300088CF8A818138C1F060F4803809F081CF53
:104C400020E04B8160913903809138030E947013FA
:104C500078CF823859F1833809F073CF20E0409142
:104C60003A036C818B81F2CF60E08B810E945417F4
:104C70009B8180913703911111C08E7F8093370300
:104C800010923603EFEFF0E722E0E150F0402040D1
:104C9000E1F700C000000E94310F53CF8160809384
:104CA000370360E086950E9454174BCF8B81809329
:104CB0003B0347CF8A81813899F030F4803809F07E
:104CC00040CF80913A0321CF823891F0833809F0A8
:104CD00038CF809138038B83809139038C8331CF17
:104CE0008091370380FF02C086950FCF80E00DCF03
:104CF00080913B030ACF6091370370913803809114
:104D0000390390913A030E945E131BCF80E18A839E
:104D100018CF1A828AE6F9CE0A811B811027012753
:104D20001027CE0101963C018C80FC01E80DF11D9D
:104D30004F01C8018A569C4F6814790409F401CFC9
:104D40000A36110550F40E946D28F30184830F5F29
:104D50001F4FFFEF6F1A7F0AECCFF3011482F7CFDA
:104D60000A811B81102701271027CE0101963C01E3
:104D70008C80800E912E911CC8018A569C4F801603
:104D8000910609F4DECE0A36110520F4F3016481A0
:104D90000E948128FFEF6F1A7F0A0F5F1F4FECCF31
:104DA0000E94E10DCECE84E0B2CF0A811B81102794
:104DB00001271027CE0101963C018C80FC01E80DF3
:104DC000F11D4F01C80186968614970409F4B9CEE7
:104DD0000037F3E01F0750F40E946D28F30184832D
:104DE0000F5F1F4FFFEF6F1A7F0AECCFF3011482A2
:104DF000F7CF0A811B81102701271027CE010196CA
:104E00003C018C80800E912E911CC80186968016E4
:104E1000910609F496CE0037E3E01E0720F4F30173
:104E200064810E948128FFEF6F1A7F0A0F5F1F4F76
:104E3000ECCF09BD19BD09B400FEFDCF8091D800AB
:104E40008F7D8093D8008091E00082608093E000A5
:104E50008091E00081FDFCCF0E94781493CD60E04A
:104E600085E290E00E9481280E948B0D0E94E10D56
:104E700061E282E290E00E94812864E083E290E0B7
:104E80000E94812863E284E290E00E9481284DCB59
:104E900085E290E00E946D281B821C821D828E8319
:104EA00050CE2D32314008F0B2CCE8CC2D3231401A
:104EB00008F061CC97CC78941F921FB61F921124F2
:104EC0008F939F93AF93BF93809150039091510321
:104ED000A0915203B09153030196A11DB11D80937F
:104EE000500390935103A0935203B0935303BF9187
:104EF000AF919F918F911F901FBE1F9018951F9289
:104F00001FB61F9211248F939F93AF93BF938091ED
:104F10000C03811113C08091500390915103A09113
:104F20005203B09153034196A11DB11D80935003CC
:104F300090935103A0935203B0935303BF91AF9149
:104F40009F918F911F901FBE1F901895991B79E01C
:104F500004C0991F961708F0961B881F7A95C9F709
:104F60008095089587FB082E062687FD819567FDAD
:104F700061950E94A6270EF4919507FC81950895EE
:104F8000AA1BBB1B51E107C0AA1FBB1FA617B7076F
:104F900010F0A61BB70B881F991F5A95A9F780958B
:104FA0009095BC01CD01089597FB072E16F400944F
:104FB00007D077FD09D00E94C02707FC05D03EF43A
:104FC000909581959F4F0895709561957F4F0895B5
:104FD000EE0FFF1F0590F491E02D099469279627A5
:104FE000692778278727782708950E94092933237E
:104FF00012F48A1B9B0B0C94FF270E940929B7FF10
:105000000895821B930B08958F929F92AF92BF9247
:10501000CF92DF92EF92FF92CF93DF93EC01688102
:1050200079818A819B81611571058105910521F442
:1050300064E279ED8BE597E02DE133EF41E050E05C
:105040000E94B52849015A019B01AC01A7EAB1E4CD
:105050000E94D4286B017C01ACEEB4EFA501940151
:105060000E94E228DC01CB018C0D9D1DAE1DBF1DF1
:10507000B7FF03C00197A109B04888839983AA8329
:10508000BB839F77DF91CF91FF90EF90DF90CF9020
:10509000BF90AF909F908F9008950E94042808952C
:1050A00080E091E00E9404280895B0E0A0E08093A1
:1050B000000190930101A0930201B09303010895B0
:1050C000FC014150504030F001900616D1F7319765
:1050D000CF010895882799270895F999FECF92BDA9
:1050E00081BDF89A992780B50895A6E1B0E044E023
:1050F00050E00C94A728A8E1B0E042E050E00C9406
:10510000A728262FF999FECF92BD81BDF89A019765
:1051100000B4021639F01FBA20BD0FB6F894FA9AFF
:10512000F99A0FBE08950396272F0E9482280E94A5
:105130008128252F0E948228242F0C9482280196F2
:10514000272F0E9482280C948128DC01CB01FC01CE
:10515000F999FECF06C0F2BDE1BDF89A319600B4D0
:105160000D9241505040B8F70895052E97FB1EF45C
:1051700000940E94CC2857FD07D00E94E72807FC26
:1051800003D04EF40C94CC28509540953095219541
:105190003F4F4F4F5F4F0895909580957095619563
:1051A0007F4F8F4F9F4F08950E940929A59F900D13
:1051B000B49F900DA49F800D911D11240895B7FFF9
:1051C0000C94D4280E94D428821B930B0895A1E24A
:1051D0001A2EAA1BBB1BFD010DC0AA1FBB1FEE1F71
:1051E000FF1FA217B307E407F50720F0A21BB30BBC
:1051F000E40BF50B661F771F881F991F1A9469F738
:1052000060957095809590959B01AC01BD01CF0193
:105210000895A29FB001B39FC001A39F700D811D8F
:105220001124911DB29F700D811D1124911D0895AF
:10523000F894FFCF760D760D7F0D7F0D810D7F0DDC
:105240007F0D7F0D760D760D860D7F0D7F0D860D02
:1052500072159A15ED159A15ED15CD150516ED1566
:1052600002170F17751B751BEA1BEA1B441C5E1CFB
:10527000AC1BAC1B691C3F1D501D501D9C1AC31A52
:10528000CA1ACF1AD41AD91ADE1AE31AE81AED1A72
:10529000F21AF71AFA1AFF1A021B051B081B0B1B3E
:1052A0000E1B111B83258725DB25EC25F7251626EC
:1052B00019265A267B26E925E925862689268C2665
:0A52C000B026D026D326D526F92605
:1052CA000100000001191A1B1C1D1E1F20212201AA
:1052DA00020135064C0E2B0E270E230E0100010289
:1052EA000202020606060909090909090F0F0F0F2A
:1052FA000F0F151515181919191919191919191935
:10530A002324252525252525818283E200E900EA33
:10531A0000B500B600B700CD008301CC008A019227
:10532A000194012102230224022502260227022ACD
:10533A0002B300B4006F00700030313233343536B6
:10534A003766679091929394959697F0F1F440227C
:0E535A00B684016201AC001008290849080061
:00000001FF
